:107E0000112484B714BE5098589A837089F08CE17D
:107E100099EE909385008093840085E080938100A3
:107E200081E086BBB09BFECF109281004899D0D0F4
:107E300082E08093C00088E18093C10096E0909337
:107E4000C20095E29093C400809360008EE080931E
:107E50006000219AC0E0D0E093E0F92EEE24E39494
:107E600025E0D22E31E1C32E91D0813481F48ED021
:107E70008EBB95D08EB3823811F485E006C08EB3E8
:107E8000813811F484E001C083E079D075C0823478
:107E900011F484E103C0853419F485E08CD06CC002
:107EA000853541F473D0C82F71D0D0E0D82BCC0FDA
:107EB000DD1F61C0863521F484E07DD080E0E5CF10
:107EC000843609F037C062D061D0B82E5FD0C115BA
:107ED00080E7D80718F000E011E004C0FE01F7BE0B
:107EE000E895F9CF53D0F80181938F01BE12FACFF4
:107EF000C115F0E7DF0718F0FE01F7BEE8954FD097
:107F000007B600FCFDCFFE01A0E0B1E08D919D9190
:107F10000C01E7BEE89511243296A03881E0B8073D
:107F2000A9F7FE01D7BEE89507B600FCFDCFC7BE96
:107F3000E89522C08437B1F429D028D0B82E26D0B5
:107F40002ED0FE01AC2EAB0C8F010F5F1F4F849122
:107F500016D0A01205C02196BA94CB0DD11D0CC02D
:107F6000F801F2CF853739F41AD08EE108D085E9CF
:107F700006D08FE08ACF13D080E101D075CF9091E9
:107F8000C00095FFFCCF8093C60008958091C0008B
:107F900087FD02C0A895FACF8091C6000895F6DF4C
:107FA000803239F088E18093600088E0809360003F
:107FB000FFCF84E1E4CFCF93C82FE8DFC150E9F7CA
:107FC000CF91EDCFE0E6F0E098E1908380830895D3
:107FD00088E18093600010926000809100008F3FE4
:0A7FE00019F0E0E0F0E009940895C4
:0400000300007E007B
:00000001FF
