:107E0000112484B714BE5098589A80FF11C08CE199
:107E100099EE909385008093840085E080938100A3
:107E200081E086BBB09BFECF109281004899C7D0FD
:107E300082E08093C00088E18093C10086E0809357
:107E4000C20085E28093C400219AC0E0D0E0EE2415
:107E5000E39495E0D92E21E1C22E33E0F32E8ED0AB
:107E6000813481F48BD08EBB97D08EB3823811F4DD
:107E700085E006C08EB3813811F484E001C083E050
:107E800076D072C0823411F484E103C0853419F4D1
:107E900085E088D069C0853541F470D0C82F6ED098
:107EA000D0E0D82BCC0FDD1F5EC0863521F484E0F6
:107EB00079D080E0E5CF843609F035C05FD05ED060
:107EC000B82E5CD0C11580E7D80718F4FE01F7BEC4
:107ED000E89500E011E052D0F80181938F01BE12C5
:107EE000FACFC115F0E7DF0718F0FE01F7BEE895FD
:107EF00053D007B600FCFDCFFE01A0E0B1E08D91AC
:107F00009D910C01E7BEE89511243296A03881E0DE
:107F1000B807A9F7FE01D7BEE89507B600FCFDCF6C
:107F2000C7BEE89521C08437A9F428D027D0B82E41
:107F300025D032D0FE01AC2EAB0C8F010F5F1F4F4E
:107F4000849115D0F801A012F8CF2196BA94CB0DE8
:107F5000D11D0AC0853739F41FD08EE108D085E9DC
:107F600006D08FE08DCF18D080E101D078CF9091EE
:107F7000C00095FFFCCF8093C600089501C0A8956E
:107F80008091C00087FFFBCF8091C00084FD01C0BD
:107F9000A8958091C6000895F1DF803209F0FFCFE7
:107FA00084E1E5CFCF93C82FE9DFC150E9F7CF9146
:107FB000F3CFE0E6F0E098E190838083089580E0DD
:107FC000F8DF809100008F3F19F0E0E0F0E00994C5
:027FD000089512
:0400000300007E007B
:00000001FF
