:103E0000112484B714BE5098589A80FF11C08CE1D9
:103E100099EE909385008093840085E080938100E3
:103E200081E086BBB09BFECF109281004899D3D031
:103E300082E08093C00088E18093C10086E0809397
:103E4000C20085E28093C400219ACC24DD2488241A
:103E5000839445E0942E31E1A32E23E0B22E99D035
:103E6000813481F496D08EBBA2D08EB3823811F407
:103E700085E006C08EB3813811F484E001C083E090
:103E800080D07CC0823411F484E103C0853419F4FD
:103E900085E093D073C0853579F47BD0E82EFF247C
:103EA00078D0082F10E0102F00270E291F29000FAF
:103EB000111F7DD0680162C0863521F484E07DD079
:103EC00080E0DECF843609F037C063D062D0082F9F
:103ED00060D080E0C81688E3D80618F4F601B7BEB3
:103EE000E895C0E0D1E055D089930C17E1F7F0E0F8
:103EF000CF16F8E3DF0618F0F601B7BEE89557D005
:103F000007B600FCFDCF9601A0E0B1E08D919D9138
:103F1000F9010C0187BEE89511242E5F3F4FF1E0B7
:103F2000A038BF0799F7F60197BEE89507B600FCE1
:103F3000FDCFA7BEE89522C08437B1F42AD029D09E
:103F4000F82E27D034D0EF2CF6018F010F5F1F4FD2
:103F5000849117D0EA94F801C1F70894C11CD11CD0
:103F6000FA94CF0CD11C0AC0853739F420D08EE1E9
:103F700008D084E906D086E083CF19D080E101D053
:103F80006ECF982F8091C00085FFFCCF9093C60024
:103F9000089501C0A8958091C00087FFFBCF809154
:103FA000C00084FD01C0A8958091C6000895F1DF8E
:103FB000803209F0FFCF84E1E4CF1F93182FE9DFAF
:103FC0001150E9F7F4DF1F910895E0E6F0E098E181
:103FD00090838083089580E0F8DF809100008F3F18
:0A3FE00019F0E0E0F0E00995089503
:0400000300003E00BB
:00000001FF
