:100000000C9437000C9499040C9449000C9449000A
:100010000C9449000C9449000C9449000C9449003C
:100020000C9449000C9449000C9449000C947C04F5
:100030000C9449000C9449000C9449000C9449001C
:100040000C9449000C9449000C9449000C9449000C
:100050000C948C000C9449000C9449000C944900B9
:100060000C9449000C9449002E574156000011246D
:100070001FBECFEFD4E0DEBFCDBF13E0A0E0B1E004
:1000800001C01D92A336B107E1F70E9471030C94E1
:100090000B0F0C9400008EBD0DB407FEFDCF8EB586
:1000A00008952091330230E0A901849F9001859F3B
:1000B000300D949F300D1124C9010895982F969505
:1000C00088B18F7C88B9933029F487B18F7C87B948
:1000D00080E30BC0923021F43D983D9A80E205C048
:1000E000913031F43C983C9A80E180937E000895F1
:1000F00087B1806387B910927E000895E1ECF0E04B
:100100009081986090838093C60082E48093C000C1
:1001100080818064808308951F920F920FB60F92A2
:1001200011248F93EF93FF9351985998E1ECF0E0ED
:100130008081877B8083FF91EF918F910F900FBE1D
:100140000F901F9018958F929F92AF92BF92DF925F
:10015000EF92FF920F931F93CF93DF93BC01809197
:100160002201823010F010923402462F272F33E004
:10017000E32FF0E0ED5DFE4F842F922F6AE070E0F8
:100180000E94CE0E805D8083842F922F6AE070E003
:100190000E94CE0E462F272F315050F787E291E074
:1001A00068E670E00E94040F83E291E00E94110D66
:1001B000833011F463E0B8C1882311F062E0B4C168
:1001C00083E291E06CE070E04FE151E00E94660A4A
:1001D000882309F0B6C180911F01909120010C97EE
:1001E00009F0B5C180912B0190912C01A0912D01B6
:1001F000B0912E0187559144A645B54409F0A7C199
:10020000DD2483E291E068E070E04FE151E00E947C
:10021000660A882309F095C180911F019091200101
:10022000089709F094C1E0902701F090280100910F
:10023000290110912A018091230190912401A0911C
:100240002501B09126018C3469E4960763E5A60781
:1002500064E5B60709F4C0C08D3429E4920723E5AC
:10026000A20724E5B20778F486366DE6960764E7C0
:10027000A60760E2B607B9F084549944A345B04597
:1002800009F065C1A9C0843661E6960764E7A60750
:1002900061E6B60709F46DC086569146A346B44799
:1002A00009F055C199C0C70181709070892B29F060
:1002B0000894E11CF11C011D111DD801C7014097D4
:1002C000A109B10981379105A105B10508F03FC128
:1002D00083E291E0B7014FE151E00E94660A882372
:1002E00009F02FC180911F0190912001A0E0B0E0A2
:1002F0008E159F05A007B10709F029C18091230140
:10030000813009F024C1D090250162E0D61611F4A5
:10031000F69A01C0F69880913101883029F0803139
:1003200009F015C1F79A01C0F79884FDDD0C209102
:100330002701309128014091290150912A01DA01C9
:10034000C90180549F41A040B04081549C49A040C5
:10035000B04008F0FCC060E673EE86E190E00E94D9
:10036000E20E30E021503040309389002093880025
:1003700048CFDD2009F4EBC080E0E81684E0F80601
:1003800080E0080780E0180708F4E1C08D2D90E0B8
:1003900001979C01442737FD4095542FDA01C9018C
:1003A0008E219F21A023B1230097A105B10509F05B
:1003B000CEC080914E0290914F02A0915002B09118
:1003C0005102282339234A235B2321153105410596
:1003D000510509F0BCC01EC0C70181709070892B07
:1003E00029F00894E11CF11C011D111D80914E02A1
:1003F00090914F02A0915002B0915102E80EF91E67
:100400000A1F1B1FC801B7010E945708882309F45F
:10041000F8CE97C025E0E216F1040105110510F4AD
:100420006E2D82C080904E0290904F02A09050029C
:10043000B0905102409A84B5882379F483EA84BD50
:1004400081E085BDDD24D394D7BCD8BC84E690E0A0
:100450000E94E60360E8D616B1F7809181008823F8
:1004600071F4109235021092070110920601109259
:1004700080008AE08093810082E080936F00C40155
:10048000917060E072E0681B790B80E090E04FE1D2
:1004900051E00E94660A882309F03DC080911F0147
:1004A00090912001A0E0B0E0E81AF90A0A0B1B0BBA
:1004B00081E0E81684E0F80680E0080780E018078D
:1004C00018F0C0E0D4E001C0E70180E090E0BE0198
:1004D0004FE151E00E94660A80911F019091200136
:1004E000C817D907C1F40E94F202882349F080910D
:1004F0003602909137028F5F9F4F11F461E00CC07C
:1005000080911F01909120018050944011F060E093
:1005100003C0CE01C7CF62E0809135028823E1F7A6
:1005200080E887BD88BD4098862FDF91CF911F91CD
:100530000F91FF90EF90DF90BF90AF909F908F90C2
:10054000089592E0E92EF12C012D112D69CF84E060
:10055000E82EF12C012D112D63CF1F938091C00047
:1005600087FF3EC01091C600103299F480910801B7
:100570008033A1F58091C10088608093C100F89418
:1005800014BE8FEF94E09EBF8DBFE0E0FEE30995BF
:1005900025C01D5F8091C10088608093C1001093C9
:1005A000C600135082E48093C0008091C100806433
:1005B0008093C100812F80538A3080F4409A812F2C
:1005C00090E0C0970E94A300409880E887BD88BD56
:1005D00080918100882311F010928100109308010E
:1005E0001F910895F59B24C08091360290913702A7
:1005F0002091360230913702885F9F4FB0F4205F20
:100600003F4F98F0F598809136029091370282958D
:10061000880F807E805E80933302809136029091B5
:10062000370287700E945E0058C0F59881E00895F7
:100630000E94AD029EB39F7180910101981709F04D
:1006400048C0B89B4CC081E087BB809121018F5F7F
:10065000809321018A3008F442C0F8948EB38F71E0
:10066000891739F48EB3807D8EBB8EB38F718093E2
:1006700001017894109221018091C10088608093DB
:10068000C10088E58093C60082E48093C000809119
:10069000C10080648093C10085B192E0892785B94B
:1006A000809100018F5F809300018333C0F010922E
:1006B0000001409A88E290E00E94A300409880E800
:1006C00087BD88BD80918100882349F01092810008
:1006D00004C0909301011092210180E0089580E010
:1006E0000895EF92FF920F931F9314BE80E68AB98C
:1006F0001BB88EE284B98CE185B923E027B918B81C
:10070000409A87B18C6387B91092C50086E28093C6
:10071000C40086E08093C20090E19093C10082E023
:100720008093C0005098589A519859981092B000F0
:100730001092B20087E08093B1009EBB1ABC1BBC34
:100740002093690081E08DBB789420E1E22EFF24A4
:10075000F39400E888E392E00E94770D882351F536
:100760004098EEBA1ABC1BBC10922101F7BA0E9445
:10077000F2028823E1F380913602909137028F5F75
:100780009F4FA9F0409A80913602909137020E94C3
:10079000A300182F409807BD08BD809181008823D1
:1007A00011F0109281001130F9F2109234021230DF
:1007B000D9F6409A0E94AD02CDCFA895019728F0B6
:1007C000E0EAFFE03197F1F7F8CF089572E07A950B
:1007D000F1F70197D9F7A89508958FEF8EBD8DB5E4
:1007E00087FFFDCF8EB508958EBD8DB587FFFDCFF8
:1007F0008EB50895DC01FB0122E032E02E1B3F0B99
:10080000241B350B319790F0319750F09FEF9EBD30
:100810008DB587FFFDCF8EB59EBD319718F0F8CF0F
:100820008FEF8EBD8DB587FFFDCF8EB51097B9F0D8
:100830004150504061F09FEF9EBD8DB587FFFDCFC9
:100840008EB59EBD8D934150504019F0F6CF8FEF7D
:100850008EBD8DB587FFFDCF8EB58D9348C0F799BE
:100860005695F7994795F6995695F699479560915B
:100870000601A3E2B1E0A60FB11D809135028C3FC5
:10088000E0F7ABDFEE27F79B03C0E82FA6DF805829
:10089000F82FF69B0BC0A1DF9927F79B03C0982F79
:1008A0009CDF8058E90FF81FF795E7950F930091AB
:1008B0003302002361F0F0581F93E09F912D1F2F0A
:1008C0001003F0011124E90FF11DF0581F910F9151
:1008D000ED93FD93F894809135028E5F80933502FD
:1008E00078946E5F4150504021F66093060175DFA9
:1008F00021503040E1F708958F938FB78F93EF9396
:10090000FF9380913502825070F080933502E09120
:100910000701FF27ED5DFE4F819187BD819188BD65
:10092000E352E0930701FF91EF918F918FBF8F9179
:1009300018958F937F938FB78F9379B177FB85B19C
:1009400081F985B9F49B73FF1EC08EB38F708395B8
:1009500084FF04C08EB3807F8EBBF59A889474FDAB
:1009600008948AB5881F8ABD8BB5881F8BBDF59901
:1009700004C08EB383958EBB06C08AB580933602C1
:100980008BB5809337028EB373FB84F98EBB8F9146
:100990008FBF7F918F911895DF92EF92FF920F9307
:1009A0001F93D82E7A018B0187FF0CC087E740E0A8
:1009B00050E060E070E00E94CC04823008F041C05A
:1009C0008FE7D8222A9A8FEF8EBD0DB407FEFDCF98
:1009D0008EB52A988FEF8EBD0DB407FEFDCF8EB574
:1009E0008D2D0E94F403812F9927AA27BB270E94EF
:1009F000F403C801AA27BB270E94F403BB27A12F39
:100A0000902F8F2D0E94F4038E2D0E94F40380E41A
:100A1000D81611F485E906C088E4D81611F487E8E1
:100A200001C081E00E94F4039AE02FEF2EBD0DB4C7
:100A300007FEFDCF8EB58093030187FF02C0915062
:100A4000A9F71F910F91FF90EF90DF900895EF921B
:100A5000FF920F931F93CF93DF937C01E901809165
:100A6000620283FD07C039E0440F551F661F771FE0
:100A70003A95D1F781E50E94CC048823E1F420E384
:100A800035E79FEF9EBD0DB407FEFDCF8EB5809379
:100A90000201809102018F3F19F42150304091F7FB
:100AA000809102018E3F39F4C701BE01A8010E9466
:100AB000FA0390E001C091E02A9A8FEF8EBD0DB449
:100AC00007FEFDCF8EB5892FDF91CF911F910F913A
:100AD000FF90EF900895CF92DF92EF92FF920F93E5
:100AE0001F93DF93CF9300D000D0CDB7DEB780E562
:100AF0008CBD81E08DBD8AE090E02FEF2EBD0DB45E
:100B000007FEFDCF3EB50197C9F72A9888E592E028
:100B10002FEF2EBD0DB407FEFDCF3EB50197C9F7EF
:100B200080E440E050E060E070E00E94CC0481305E
:100B300009F06EC088E44AEA51E060E070E00E948B
:100B4000CC04813009F042C06E010894C11CD11C54
:100B500076019FEF9E012B5F3F4F9EBD0DB407FEB8
:100B6000FDCF8EB5F70181937F01E217F307A9F757
:100B70008B81813009F04CC08C818A3A09F048C0E1
:100B800008EA11E604C00150104009F441C089EEA2
:100B900040E050E060E070E40E94CC04882399F7C4
:100BA00052C09FEF9EBD0DB407FEFDCF8EB5F6017E
:100BB00081936F01EE15FF05A9F7898186FD03C0BA
:100BC000E4E0FE2E26C07CE0F72E23C089EE40E054
:100BD00050E060E070E00E94CC04823028F061E4D4
:100BE000E62EFF24F39404C059EEE52E42E0F42EE5
:100BF00008EA11E603C00150104051F08E2D40E08C
:100C000050E060E070E00E94CC048823A1F726C089
:100C1000FF24F09262022A9A8FEF8EBD0DB407FE78
:100C2000FDCF8EB580E0FF2009F481E00F900F909A
:100C30000F900F90CF91DF911F910F91FF90EF9048
:100C4000DF90CF9008958AE740E050E060E070E0E8
:100C50000E94CC04882309F4A4CFDACF80E540E0D9
:100C600052E060E070E00E94CC04882389F6D1CF86
:100C7000CF92DF92EF92FF920F931F93CF93DF9368
:100C80006C01C0910401D0910501FC011182108218
:100C90002481358146815781213031054105510537
:100CA00009F45BC08E819F81A885B9852817390713
:100CB0004A075B0708F051C0211531054105510570
:100CC00039F48881833021F42E853F8548895989FC
:100CD000F601208731874287538721153105410569
:100CE000510581F18EEFE82E8FEFF82E8FEF082F50
:100CF0008FEF182FE20EF31E041F151F8E819F81A8
:100D0000A885B9850297A109B109E816F9060A076D
:100D10001B0728F020E030E040E050E017C02A81B7
:100D200030E040E050E0C801B7010E94AF0E9B01E7
:100D3000AC018A899B89AC89BD89280F391F4A1F5C
:100D40005B1F04C02E853F8548895989F601248799
:100D500035874687578780E001C081E0DF91CF91DA
:100D60001F910F91FF90EF90DF90CF9008956F92B9
:100D70007F928F929F92AF92BF92CF92DF92EF922B
:100D8000FF920F931F93DF93CF9300D000D0CDB786
:100D9000DEB74B015C01609004017090050182E0B8
:100DA00088169104A104B10408F4B4C0F30186814B
:100DB0009781A085B18588169906AA06BB0608F01A
:100DC000A9C08081823009F45FC0833009F47BC000
:100DD000813009F09FC0C40196958795880D991DB3
:100DE0009C013170892F992786956C01EE24FF2490
:100DF000F3014285538564857585CE010196F1E046
:100E00002F3F3F0749F0C40ED51EE61EF71EB7015F
:100E1000A60102E010E01EC04C0D5D1D6E1D7F1D81
:100E20002FEF31E001E010E00E942705882309F050
:100E300071C0F30142855385648575854F5F5F4FAF
:100E40006F4F7F4F4C0D5D1D6E1D7F1DCE010296B5
:100E500020E030E00E942705882309F05BC069810B
:100E60007A81C40181709070892B39F0A4E0769565
:100E70006795AA95E1F79B0123C09B0140E050E0F4
:100E80003F70407050704AC077276B2D5A2D492D06
:100E9000F30182859385A485B585480F591F6A1F84
:100EA0007B1F94013070220F331FCE01019602E0A8
:100EB00010E00E942705882369F589819A819C01A9
:100EC00040E050E02BC0B501A40127E0769567957E
:100ED000579547952A95D1F7F30182859385A48587
:100EE000B585480F591F6A1F7B1F94012F773070FB
:100EF000220F331F220F331FCE01019604E010E0B2
:100F00000E942705882331F429813A814B815C8135
:100F10005F7004C021E030E040E050E0B901CA0158
:100F20000F900F900F900F90CF91DF911F910F9125
:100F3000FF90EF90DF90CF90BF90AF909F908F90F9
:100F40007F906F900895AF92BF92CF92DF92EF9211
:100F5000FF920F931F93CF93DF935C01C091040125
:100F6000D0910501FC01C080D1800894C11CD11C26
:100F7000C114D10409F48FC0248535854685578571
:100F8000211531054105510509F485C0C6018F7051
:100F90009070892B09F07AC02F5F3F4F4F4F5F4F02
:100FA00024873587468757874085518562857385B5
:100FB000411551056105710539F48C819D81C81673
:100FC000D90608F463C067C08A8190E00197960152
:100FD000E4E036952795EA95E1F782239323892B60
:100FE00009F054C0CB01BA010E94B7069B01AC01C5
:100FF000623071058105910510F481E04DC08E814C
:101000009F81A885B985281739074A075B0708F02B
:1010100042C0F5012087318742875387C091040180
:10102000D09105018EEFE82E8FEFF82E8FEF082F6D
:101030008FEF182FE20EF31E041F151F8E819F8164
:10104000A885B9850297A109B109E816F9060A072A
:101050001B0728F020E030E040E050E012C02A8179
:1010600030E040E050E0C801B7010E94AF0E9B01A4
:10107000AC018A899B89AC89BD89280F391F4A1F19
:101080005B1FF5012487358746875787F501D18295
:10109000C08280E001C083E0DF91CF911F910F916A
:1010A000FF90EF90DF90CF90BF90AF9008952F9278
:1010B0003F924F925F926F927F928F929F92AF92E8
:1010C000BF92CF92DF92EF92FF920F931F93CF9335
:1010D000DF93E82FC0910401D0910501209711F40E
:1010E00086E002C1898180FD02C085E0FDC0EA8CF6
:1010F000FB8C0C8D1D8D4E2F592FCB01DA013C013D
:101100004D01E614F7040805190510F437014801EC
:10111000EE88FF88088D198D1E8A1F8A188E198EF9
:10112000611471048104910409F4DAC08A81A82E43
:10113000BB24CC24DD24B9E0AA0CBB1CCC1CDD1CD8
:10114000BA95D1F7E114F10401051105B1F11701C8
:10115000280108942108310841085108C401B3014D
:101160006150704080409040A60195010E94E20EBF
:1011700079018A01C201B101A60195010E94E20E26
:10118000E216F30604071507C0F088279927DC014B
:101190008A199B09AC09BD0982219321A421B5219B
:1011A0008E8B9F8BA88FB98F681A790A8A0A9B0A3F
:1011B0002AA13BA14CA15DA133C02E8D3F8D48A13A
:1011C00059A12AA33BA34CA35DA32AC0CA01B9011C
:1011D0000E94B7069B01AC01623071058105910543
:1011E00008F480C08E819F81A885B98528173907AA
:1011F0004A075B0708F076C02AA33BA34CA35DA374
:101200008E899F89A88DB98D8A0D9B1DAC1DBD1D32
:101210008E8B9F8BA88FB98F6A187B088C089D08CE
:10122000A614B704C804D90488F2EE88FF88088D94
:10123000198DE60CF71C081D191DEE8AFF8A088F10
:10124000198F8090040190900501AEEFAA2EAFEFA8
:10125000BA2EAFEFCA2EAFEFDA2EA20EB31EC41E07
:10126000D51EF40186819781A085B1850297A109D9
:10127000B109A816B906CA06DB06A0F5228130E03E
:1012800040E050E0C601B5010E94AF0E9B01AC01E9
:10129000F40182899389A489B589280F391F4A1FCF
:1012A0005B1F2115310541055105E1F0F9E0169567
:1012B0000795F794E794FA95D1F78A8190E0019722
:1012C000AA2797FDA095BA2FE822F9220A231B230B
:1012D0002E0D3F1D401F511F2EA33FA348A759A706
:1012E00080E002C0198281E0DF91CF911F910F91C0
:1012F000FF90EF90DF90CF90BF90AF909F908F9036
:101300007F906F905F904F903F902F900895AF9295
:10131000BF92CF92DF92EF92FF920F931F93DF93D2
:10132000CF93CDB7DEB7AC970FB6F894DEBF0FBE44
:10133000CDBF7C016B018091040190910501892B47
:1013400011F486E0B0C0CE010196D70113969C93AC
:101350008E9312976115710539F083E00DE0A02E90
:10136000B12CAC0EBD1E28C0C7010E9438069BC020
:10137000F701208131812F70307015E0220F331F6B
:101380001A95E1F7C50100E210E00E9427058823C5
:1013900011F081E01FC09D85992309F495C0888DC7
:1013A000953E29F09E3219F08F7383FF1DC0C7014F
:1013B0000E94A307882371F4D7011C964D915D917B
:1013C0006D917C911F97411551056105710581F65D
:1013D000882351F0F7011486158616861786833008
:1013E00019F0882309F05FC09601275F3F4FF7018E
:1013F00084859585A685B7850097A105B10509F473
:1014000043C0FE013D96AE014B5E5F4F808180324E
:1014100051F0853009F485EED9018D939D01319607
:10142000E417F50799F78D89803299F08EE2F9017A
:1014300081939F01FE017596AE01485E5F4F8081EA
:10144000803239F0D9018D939D013196E417F5076B
:10145000B1F7888DF6018087FE013D96448D558D4C
:10146000668D778DD6014D935D936D937C93139725
:10147000808D918D15969C938E931497868997896C
:1014800017969C938E931697F9011082C7010E94BC
:10149000A307833041F4D7011C961D921D921D9223
:1014A0001C921F9780E0AC960FB6F894DEBF0FBE7B
:1014B000CDBFCF91DF911F910F91FF90EF90DF9003
:1014C000CF90BF90AF90089583E084CF4F925F920A
:1014D0006F927F928F929F92AF92BF92CF92DF9244
:1014E000EF92FF920F931F93CF93DF933C016B0119
:1014F0004A01C0910401D0910501FA0111821082C4
:10150000209711F486E0CAC0898180FD02C085E081
:10151000C5C02A8D3B8D4C8D5D8D8E899F89A88D90
:10152000B98D281B390B4A0B5B0BCB01A0E0B0E057
:10153000281739074A075B0708F469015301412C52
:1015400072E0572EA3C02E893F89488D598DDA014C
:10155000C9019170A070B0700097A105B10509F0A4
:1015600060C0DA01C90169E0B695A795979587959E
:101570006A95D1F7FA80FA94F822D1F42115310551
:101580004105510529F46E8D7F8D88A199A106C072
:101590006AA17BA18CA19DA10E94B7066230710552
:1015A0008105910508F478C06AA37BA38CA39DA351
:1015B00000910401109105012AA13BA14CA15DA15C
:1015C0002250304040405040F80186819781A085EC
:1015D000B1850297A109B109281739074A075B07A6
:1015E00008F05AC0628170E080E090E00E94AF0E87
:1015F0009B01AC01F80182899389A489B589280FE0
:10160000391F4A1F5B1F211531054105510509F49A
:1016100043C02F0D311D411D511D2EA33FA348A7CF
:1016200059A72E893F893170C201821B930B760125
:101630008C159D0508F47C016114710419F480E097
:1016400090E001C0C5014EA15FA168A579A5870101
:101650000E942705882301F5C701A0E0B0E02E898C
:101660003F89488D598D280F391F4A1F5B1F2E8BCC
:101670003F8B488F598FAE0CBF1CCE18DF08F4018A
:10168000808191818E0D9F1D91838083C114D1042F
:1016900009F059CF80E002C0198281E0DF91CF913B
:1016A0001F910F91FF90EF90DF90CF90BF90AF9080
:1016B0009F908F907F906F905F904F900895AF9222
:1016C000BF92CF92DF92EF92FF920F931F93CF932F
:1016D000DF93B82EA92E6A017B012EEF31E002E0E4
:1016E00010E00E942705882311F023E033C0CB2DA2
:1016F000DA2D8881998185559A4A11F022E02AC015
:101700008B2D9A2DB701A60126E330E002E010E010
:101710000E942705882339F4888199818654914451
:1017200011F420E017C08B2D9A2DB701A60122E5F8
:1017300030E002E010E00E942705882311F021E04C
:1017400009C020E0888199818654914409F421E000
:1017500081E02827822FDF91CF911F910F91FF9079
:10176000EF90DF90CF90BF90AF9008956F927F92EF
:101770008F929F92AF92BF92CF92DF92EF92FF92A1
:101780000F931F93CF93DF93EC016B017A0103C09A
:101790000894E11CF11CF70180818032C9F38F327B
:1017A00019F40894E11CF11C1C821D821E821F8208
:1017B000F7018081813238F4CE010E943806B82EBC
:1017C000F6011082C2C020E2622E772473949BE05F
:1017D000892E912C8C0C9D1CAA81BB81FD018BE074
:1017E00090E001C0619201972FEF8F3F9207D1F7F0
:1017F00020E0AA2438E002C028E03BE0F701EA0D2F
:10180000F11D9081A3949132B0F09F32A1F09E32ED
:1018100011F0231728F0383071F49E3269F30BC0B1
:10182000892F81568A3108F49052FD01E20FF11D93
:1018300090832F5FE3CF1B961C921B97913210F47D
:101840001B967C92CE010E943806B82E882309F0A0
:1018500056C028813981C90187709070892BA1F405
:101860004C855D856E857F852870307085E0220F00
:10187000331F8A95E1F783E692E000E011E00E94D1
:101880002705882309F074C0E881F981E770F070BA
:1018900005E0EE0FFF1F0A95E1F7D601ED59FD4F68
:1018A00080E201900D928150E1F7F601808188235A
:1018B00009F45BC0F401808183FD14C0D6018A81E4
:1018C0009B819C01F9012BE030E0215030408FEFEB
:1018D0002F3F380771F09C918081981719F4119669
:1018E0003196F3CFCE010E94A307882309F4B1CF2C
:1018F00040C0EA81FB818385882351F026C0E3E064
:10190000BE1619F5EA81FB8183858823E1F01DC0AD
:10191000F401808184FF17C0EA0CF11CF601848970
:101920009589A0E0B0E0DC0199278827228D338DCE
:1019300040E050E0822B932BA42BB52B8C839D830E
:10194000AE83BF8349CFF4E0BF2E8B2DDF91CF91C3
:101950001F910F91FF90EF90DF90CF90BF90AF90CD
:101960009F908F907F906F900895E3E0BE2ECACF36
:1019700081E0B82EC4CFEF92FF920F931F93DF93B5
:10198000CF93CDB7DEB7AC970FB6F894DEBF0FBEDE
:10199000CDBF8C01AB018091040190910501892B91
:1019A00011F486E031C0CE010196F8019383828361
:1019B0006DE0E62EF12CEC0EFD1EC801B7010E9471
:1019C000B60B8823F1F48D858823C1F0888D84FFC0
:1019D0001AC0F70184899589A0E0B0E0DC0199275D
:1019E0008827228D338D40E050E0822B932BA42B4F
:1019F000B52BF80184839583A683B783C8010E9421
:101A00003806833009F484E0AC960FB6F894DEBF54
:101A10000FBECDBFCF91DF911F910F91FF90EF903F
:101A20000895EF92FF920F931F93DF93CF93CDB75B
:101A3000DEB7EC970FB6F894DEBF0FBECDBFAC019A
:101A400000910401109105010115110511F466E0E2
:101A500040C0F8011182CE010196988B8F87EDE18D
:101A6000EE2EF12CEC0EFD1ECE010D96B7010E945C
:101A7000B60B682F882369F58D8D882349F188A5D9
:101A800084FD26C0F70184899589A0E0B0E0DC01DF
:101A900099278827228D338D40E050E0822B932BAD
:101AA000A42BB52BF801868F978FA0A3B1A3F701C4
:101AB000848D958DA68DB78DF801828F938FA48F1D
:101AC000B58F168A178A108E118E81E0818301C02E
:101AD00063E0862FEC960FB6F894DEBF0FBECDBF45
:101AE000CF91DF911F910F91FF90EF9008956F922A
:101AF0007F928F929F92AF92BF92CF92DF92EF929E
:101B0000FF920F931F93DF93CF93CDB7DEB7A497C8
:101B10000FB6F894DEBF0FBECDBF5C011092050179
:101B200010920401009709F4ECC00E946B0580FF3D
:101B300002C082E0EBC04E010894811C911CC401DC
:101B400040E050E060E070E00E945F0B813021F0E7
:101B5000CC24DD2476011BC0C40140E050E060E0ED
:101B600070E02EEB31E000E110E00E9427058823B1
:101B700009F0C9C08D81882309F4C7C0C984DA84FB
:101B8000EB84FC84C401B701A6010E945F0B833083
:101B900009F4B9C0882309F0B8C0CE010196B70195
:101BA000A6012DE030E004E210E00E942705882322
:101BB00009F0A9C08A859B85BC0180E090E0611591
:101BC00071058105910521F4688D798D8A8D9B8D34
:101BD0002C8130E040E050E00E94AF0E3B014C0110
:101BE0008A819B81A0E0B0E0C80ED91EEA1EFB1ED0
:101BF000F501C286D386E486F586898182832D81AC
:101C00003E81358324838F8198857C0100E010E03C
:101C1000E114F1040105110521F4EC88FD880E8919
:101C20001F898A819B81A0E0B0E0E81AF90A0A0BBB
:101C30001B0BE618F70808091909B4E03695279533
:101C4000BA95E1F7C901A0E0B0E0E81AF90A0A0B79
:101C50001B0BF501228130E040E050E0C801B701E4
:101C60000E94E20E2E5F3F4F4F4F5F4FF5012683DC
:101C7000378340875187273FFFE03F07F0E04F075A
:101C8000F0E05F0710F481E001C082E0275F3F4F82
:101C90004040504008F083E0F5018083833029F410
:101CA00088A199A1AAA1BBA109C0F501828593854C
:101CB000A485B585860D971DA81DB91D86879787B4
:101CC000A08BB18BF50184819581A4E096958795D1
:101CD000AA95E1F7A0E0B0E02285338544855585DB
:101CE000820F931FA41FB51F860D971DA81DB91D38
:101CF000828B938BA48BB58B1182B0920501A0923D
:101D0000040180E003C081E001C087E0A4960FB623
:101D1000F894DEBF0FBECDBFCF91DF911F910F9121
:101D2000FF90EF90DF90CF90BF90AF909F908F90FB
:101D30007F906F9008951F93182F84E690E00E9483
:101D4000DD035C9A82E390E00E94DD035C98115011
:101D5000A1F788EE93E00E94DD031F910895629F32
:101D6000D001739FF001829FE00DF11D649FE00D93
:101D7000F11D929FF00D839FF00D749FF00D659FF4
:101D8000F00D9927729FB00DE11DF91F639FB00DF3
:101D9000E11DF91FBD01CF0111240895AA1BBB1B32
:101DA00051E107C0AA1FBB1FA617B70710F0A61B5B
:101DB000B70B881F991F5A95A9F780959095BC017C
:101DC000CD010895A1E21A2EAA1BBB1BFD010DC077
:101DD000AA1FBB1FEE1FFF1FA217B307E407F507DB
:101DE00020F0A21BB30BE40BF50B661F771F881FB7
:101DF000991F1A9469F760957095809590959B014D
:101E0000AC01BD01CF010895FB01DC0105900D92ED
:0A1E10000020E1F70895F894FFCFD9
:00000001FF
