:100000000C9446000C9405020C9463000C9463005D
:100010000C9463000C9463000C9463000C9409210D
:100020000C9463000C9463000C9463000C94E8013E
:100030000C9463000C9463000C9463000C946300B4
:100040000C9463000C9463000C9463000C946300A4
:100050000C9430010C9463000C9463000C946300C6
:100060000C9463000C9463002F1F321FA5209A1F6D
:100070001B20A520A520A520A520A5206A206F2053
:1000800074207F2094202E574156000011241FBE5B
:10009000CFEFD8E0DEBFCDBF11E0A0E0B1E0E4E6F5
:1000A000FBE402C005900D92AC31B107D9F716E020
:1000B000ACE1B1E001C01D92A33DB107E1F70E94A0
:1000C000F8220C94B0250C9400008EBD0DB407FEF0
:1000D000FDCF8EB5089520915A03AC01249FC00135
:1000E000259F900D11240895869598B19F7C98B90D
:1000F000833029F487B18F7C87B980E30BC08230CD
:1001000021F43D983D9A80E205C0813031F43C985D
:100110003C9A80E180937E00089587B1806387B91F
:1001200010927E00089590912C019111FCCF909136
:10013000C10098609093C1008093C60082E48093D0
:10014000C00081E080932C018091C1008064809385
:10015000C1000895CF938091C00087FF2EC0C09149
:10016000C600C032D1F480912F03803321F5109264
:10017000B000809170008D7F809370008091C100ED
:1001800088608093C100F89414BE8FEF98E09EBF02
:100190008DBFE0E0FEE709950EC0CB3161F485E448
:1001A0000E94930080912F038B3129F486E40E94F2
:1001B000930081E003C0C0932F0380E0CF910895A6
:1001C000F59B23C080915D0390915E0320915D03B8
:1001D00030915E03F598203F3F4FA8F0883F9F4F36
:1001E00090F480915D0390915E038295880F807EEC
:1001F000805E80935A0380915D0390915E038770C7
:100200000E94740029C081E008950E94AA00811113
:1002100025C08EB38F7190911C01891319C0B89BB2
:100220001BC091E097BB909148039F5F9093480358
:100230009A3090F0F8949EB39F71981307C08EB3D4
:10024000807D8EBB8EB38F7180931C01789402C029
:1002500080931C011092480380E0089582E0089585
:100260001F920F920FB60F9211248F93EF93FF936B
:1002700051985998E1ECF0E08081877B808310925F
:100280002C01FF91EF918F910F900FBE0F901F9057
:100290001895A895019728F0E0EAFFE03197F1F76B
:1002A000F8CF089572E07A95F1F70197D9F7A895FC
:1002B00008958FEF8EBD8DB587FFFDCF8EB5089564
:1002C0008EBD8DB587FFFDCF8EB50895DC01FB0196
:1002D00022E032E02E1B3F0B241B350B319790F0B0
:1002E000319750F09FEF9EBD8DB587FFFDCF8EB546
:1002F0009EBD319718F0F8CF8FEF8EBD8DB587FF7B
:10030000FDCF8EB51097B9F04150504061F09FEF8E
:100310009EBD8DB587FFFDCF8EB59EBD8D9341509F
:10032000504019F0F6CF8FEF8EBD8DB587FFFDCF12
:100330008EB58D9348C0F7995695F7994795F699DC
:100340005695F699479560912D01AEE2B1E0A60F62
:10035000B11D80915C038C3FE0F7ABDFEE27F79B8C
:1003600003C0E82FA6DF8058F82FF69B0BC0A1DF53
:100370009927F79B03C0982F9CDF8058E90FF81F3F
:10038000F795E7950F9300915A03002361F0F05819
:100390001F93E09F912D1F2F1003F0011124E90FEF
:1003A000F11DF0581F910F91ED93FD93F8948091FA
:1003B0005C038E5F80935C0378946E5F4150504085
:1003C00021F660932D0175DF21503040E1F708954B
:1003D0008F938FB78F93EF93FF9380915C0382503D
:1003E00070F080935C03E0912E03FF27E25DFE4FE7
:1003F000819187BD819188BDEE52E0932E03FF91DC
:10040000EF918F918FBF8F9118958F937F938FB7B7
:100410008F9379B177FB85B181F985B9F49B73FF2F
:100420001EC08EB38F70839584FF04C08EB3807F0F
:100430008EBBF59A889474FD08948AB5881F8ABD8E
:100440008BB5881F8BBDF59904C08EB383958EBB89
:1004500006C08AB580935D038BB580935E038EB32F
:1004600073FB84F98EBB8F918FBF7F918F9118950D
:100470008FEF8EBD0DB407FEFDCF8EB508952A9A7D
:100480000C943802FF920F931F93CF93DF93C82FE2
:10049000D42F152F062FF72E87FF09C040E050E01C
:1004A000BA0187E70E944202823050F5CF772A9A3C
:1004B0000E9438022A980E9438028C2F0E94600104
:1004C0008F2D0E946001802F0E946001812F0E9469
:1004D00060018D2F0E946001C03421F0C83421F0EA
:1004E00081E003C085E901C087E80E946001CAE09D
:1004F0000E94380280931F0187FF02C0C150C1F7DC
:10050000DF91CF911F910F91FF900895EF92FF928D
:100510000F931F93CF93DF9300D000D01F92CDB7DE
:10052000DEB780E58CBD81E08DBD0AE010E00E9461
:1005300038020150110901151105C9F72A9808E57B
:1005400012E00E9438020150110901151105C9F786
:1005500040E050E0BA0180E40E944202813009F09C
:1005600058C04AEA51E060E070E088E40E9442022C
:10057000813031F57E0185E0E80EF11C8E010F5FC0
:100580001F4F0E943802F80181938F01EE15FF057D
:10059000C1F78B818130E9F58C818A3AD1F508EA7F
:1005A00011E640E050E060E070E489EE0E94420213
:1005B0008823C9F1015011090115110591F729C0CE
:1005C00040E050E0BA0189EE0E944202823020F4FD
:1005D00092E0F92E99EE03C0FF24F39491E408EA27
:1005E00011E640E050E0BA01892F9D830E9442024B
:1005F0009D81882331F0015011090115110589F7FA
:1006000008C040E052E060E070E080E50E944202F5
:100610008111F12CF0925F030E943F0281E0FF20E4
:10062000F1F080E01CC040E050E0BA018AE70E948F
:1006300042028111EECF8E010F5F1F4F0E943802E0
:10064000F80181938F01EE15FF05C1F7898186FFBF
:1006500003C02CE0F22EDECF84E0F82EDBCF0F902B
:100660000F900F900F900F90DF91CF911F910F91EE
:10067000FF90EF900895AF92BF92CF92DF92EF92EA
:10068000FF920F931F93CF93DF931F92CDB7DEB7E7
:100690005C01790180915F0383FD07C0E9E0440FAD
:1006A000551F661F771FEA95D1F781E50E94420228
:1006B000882311F081E01CC030E3C32E35E7D32E30
:1006C0000E94380280931E0180911E018F3F31F4F9
:1006D00081E0C81AD108C114D10491F780911E019C
:1006E0008E3F41F7A801B701C5010E94660180E075
:1006F00089830E943F0289810F90DF91CF911F91E2
:100700000F91FF90EF90DF90CF90BF90AF90089542
:10071000EF92FF920F931F93CF93DF931F92CDB76A
:10072000DEB78B01BA01A90180915F0383FD07C089
:10073000A9E0440F551F661F771FAA95D1F781E5E1
:100740000E944202882311F081E029C0F0E3EF2EDD
:10075000F5E7FF2E0E94380280931D0180911D0154
:100760008F3F31F481E0E81AF108E114F10491F7C8
:1007700080911D018E3F41F7780100E010E00E945A
:10078000380280931D0180911D01F70181937F0143
:100790000F5F1F4F0115F2E01F0789F780E0898383
:1007A0000E943F0289810F90DF91CF911F910F919D
:1007B000FF90EF9008950F931F939B01AC01E09180
:1007C0002001F0912101225031094109510986810E
:1007D0009781A085B1850297A109B109281739072A
:1007E0004A075B0768F4A281B0E00E9453250289A2
:1007F000138924893589600F711F821F931F03C0DD
:1008000060E070E0CB011F910F9108950F931F934B
:10081000CF93DF93EC01E0912001F0912101198247
:1008200018826C817D818E819F8161307105810587
:10083000910559F10681178120853185601771076F
:100840008207930710F5611571058105910539F44B
:100850002081233021F46685778580899189688796
:1008600079878A879B87611571058105910519F044
:100870000E94DB0304C066857785808991896C8737
:100880007D878E879F8780E001C081E0DF91CF91D7
:100890001F910F9108954F925F926F927F92AF9246
:1008A000BF92CF92DF92EF92FF920F931F93CF935D
:1008B000DF9300D000D0CDB7DEB76B017C01A090F4
:1008C0002001B0902101623071058105910508F485
:1008D000A4C0F50186819781A085B185C816D90687
:1008E000EA06FB0608F099C08081823009F452C004
:1008F000833009F46BC0813009F08FC02601569413
:1009000047944C0C5D1C92013170452C5524469443
:10091000612C712C82859385A485B585B301A201D4
:10092000480F591F6A1F7B1F2F3FF1E03F0729F037
:1009300002E010E0CE0101961BC001E010E02FEFB5
:1009400031E0CE0101960E943B03811166C0F501A2
:1009500042855385648575854F5F5F4F6F4F7F4F2D
:10096000440D551D661D771D20E030E0CE01029636
:100970000E943B03811151C069817A81C0FE06C08B
:10098000E4E076956795EA95E1F701C07F7080E035
:1009900090E047C096013327220F331F77276F2D32
:1009A0005E2D4D2DF50182859385A485B585480F73
:1009B000591F6A1F7B1F02E010E0CE0101960E94C2
:1009C0003B0381112AC069817A81E1CF96012F779B
:1009D0003327220F331F220F331FB701A60197E0E1
:1009E00076956795579547959A95D1F7F501828544
:1009F0009385A485B585480F591F6A1F7B1F04E0A6
:100A000010E0CE0101960E943B03811106C069816E
:100A10007A818B819C819F7004C061E070E080E0EE
:100A200090E00F900F900F900F90DF91CF911F915A
:100A30000F91FF90EF90DF90CF90BF90AF907F909D
:100A40006F905F904F900895CF92DF92EF92FF9258
:100A50000F931F93CF93DF93EC01E0902001F09070
:100A60002101088119810F5F1F4F0115110511F434
:100A700083E054C08C859D85AE85BF850097A10518
:100A8000B105B1F398012F703327232B09F041C032
:100A90000196A11DB11D8C879D87AE87BF87688594
:100AA00079858A859B85F701611571058105910519
:100AB00031F48481958108171907D0F62AC0228164
:100AC00030E021503109A801E4E056954795EA95B8
:100AD000E1F724233523232BE1F40E944B046230F9
:100AE000710581059105C8F0F701C680D780E084C3
:100AF000F1846C157D058E059F0508F0B9CF6887D8
:100B000079878A879B870E94DB036C877D878E8726
:100B10009F871983088380E001C081E0DF91CF9136
:100B20001F910F91FF90EF90DF90CF900895CF929B
:100B3000DF92EF92FF920F931F93CF93DF93EC011D
:100B40006A017B0102E010E02EEF31E00E943B03DE
:100B5000811127C08881998185359A4A21F526E33C
:100B600030E0B701A601CE010E943B03811105C010
:100B70008881998186349144C1F002E010E022E539
:100B800030E0B701A601CE010E943B03811107C0EE
:100B900081E0288139812634314441F406C081E066
:100BA00005C083E003C082E001C080E0DF91CF9107
:100BB0001F910F91FF90EF90DF90CF900895BF921B
:100BC000CF92DF92EF92FF920F931F93CF93DF9319
:100BD000EC016B017A01FA0180814F5F5F4F803237
:100BE000C9F38F3209F47A011C821D821E821F8292
:100BF000F7018081813230F4CE010E940604F601B3
:100C00001082ADC000E2B02EEA81FB81DF01CF018E
:100C10000B96A817B90711F0BD92FBCF90E080E0CA
:100C200028E031E0380FD701A80FB11D8C91813237
:100C300098F08F3289F08E3209F46FC0921760F409
:100C40004FE9480F4A3108F48052DF01A90FB11D66
:100C50008C939F5F832FE5CFE30EF11C91E08132EF
:100C600008F090E09387CE010E94060481114AC0EB
:100C700028813981C90187709927892BB1F0E881D2
:100C8000F981E770FF2715E0EE0FFF1F1A95E1F7D6
:100C9000E25DFD4FD6018B2D01900D928A95E1F713
:100CA000F6018081811116C02FC028703327B5E06E
:100CB000220F331FBA95E1F74C855D856E857F85E0
:100CC00000E011E08EE292E00E943B038823B9F23B
:100CD00081E045C0F601438543FD10C00A811B81B8
:100CE000C601D8019801255F3F4FA217B307D9F07D
:100CF000FC016191CF015D916517B9F3CE010E94AE
:100D00002405B4CF833059F5EA81FB81838588239C
:100D100011F083E024C084E022C0283009F09CCF89
:100D200098E02BE097CFF8018385811117C044FF2D
:100D3000F2CFF6014489558960E070E0BA01552789
:100D40004427828D938DA0E0B0E0482B592B6A2B6D
:100D50007B2B4C835D836E837F8356CF80E0DF9156
:100D6000CF911F910F91FF90EF90DF90CF90BF90A8
:100D70000895CF93C82F84E690E00E9449015C9AC1
:100D800082E390E00E9449015C98C150A1F788EE8F
:100D900093E0CF910C9449014F925F926F927F92B2
:100DA0008F929F92AF92BF92CF92DF92EF92FF927B
:100DB0000F931F93CF93DF93CDB7DEB7A8970FB6EE
:100DC000F894DEBF0FBECDBF5C01109221011092DE
:100DD0002001009709F4E3C00E94860280FDE1C073
:100DE00040E050E0BA01CE0101960E9497058130A3
:100DF000F9F400E110E02EEB31E040E050E0BA0100
:100E0000CE0101960E943B03882311F081E0CAC005
:100E10008D81811102C087E0C5C049845A846B84EA
:100E20007C84B301A201CE0101960E94970503C004
:100E3000412C512C3201833049F38111ECCF04E273
:100E400010E02DE030E0B301A201CE0101960E9436
:100E50003B038111DBCF2A853B8540E050E0211523
:100E600031054105510521F4288D398D4A8D5B8D61
:100E7000AC81B0E00E9453256B017C018A819B818B
:100E8000AC0160E070E0440E551E661E771ED50171
:100E90001A964D925D926D927C921D97E981129601
:100EA000EC9312972D813E8115963C932E931497C7
:100EB0008F819885A0E0B0E00097A105B10521F4ED
:100EC0008C899D89AE89BF89490124E096948794D5
:100ED0002A95E1F7840120E030E00DA31EA32FA3A3
:100EE00038A78C019D01041B150B260B370BC9017C
:100EF000B8016C197D098E099F090DA11EA12FA1B2
:100F000038A5601B710B820B930B2E2F30E040E055
:100F100050E00E9472252E5F3F4F4F4F5F4FD5012B
:100F200016962D933D934D935C931997273FBFE001
:100F30003B074105510538F0273F3F4F410551051B
:100F400020F482E003C081E001C083E0D5018C93EE
:100F5000833029F488A199A1AAA1BBA106C0D70119
:100F6000C601840D951DA61DB71DF50186879787BF
:100F7000A08BB18B0DA11EA12FA138A5400E511E33
:100F8000621E731E4C0C5D1C6E1C7F1C428A538AB1
:100F9000648A758A1182B0922101A092200180E0BA
:100FA00001C082E0A8960FB6F894DEBF0FBECDBF99
:100FB000DF91CF911F910F91FF90EF90DF90CF9035
:100FC000BF90AF909F908F907F906F905F904F9069
:100FD00008950F931F93CF93DF93CDB7DEB7EC97B0
:100FE0000FB6F894DEBF0FBECDBF00912001109167
:100FF000210101151105D9F1F80111829E012F5C23
:101000003F4F3CA32BA3AC01BE016F5F7F4FCE01CE
:1010100081960E94DF0581112DC08981882349F1C5
:101020008C8584FD26C08D899E89A0E0B0E0DC011E
:10103000992788274B8D5C8D60E070E0842B952B81
:10104000A62BB72BF801868F978FA0A3B1A38D8D08
:101050009E8DAF8DB8A1828F938FA48FB58F168A86
:10106000178A108E118E81E0818380E003C086E0B4
:1010700001C083E0EC960FB6F894DEBF0FBECDBF83
:10108000DF91CF911F910F9108954F925F926F92D0
:101090007F928F929F92AF92BF92CF92DF92EF9208
:1010A000FF920F931F93CF93DF934C017B015A0163
:1010B000C0912001D0912101FA0111821082209764
:1010C00009F4A1C0898180FFA0C08A8D9B8DAC8D61
:1010D000BD8D4E895F89688D798D841B950BA60B1C
:1010E000B70BA70160E070E084179507A607B70764
:1010F00008F47C013401412CF2E05F2EE114F1048C
:1011000009F47CC08E899F89A88DB98DAC01BD0181
:10111000517066277727452B462B472BE1F5DA8060
:10112000DA94AC01BD01E9E076956795579547954E
:10113000EA95D1F7D422C9F4892B8A2B8B2B29F479
:101140006E8D7F8D88A199A106C06AA17BA18CA11B
:101150009DA10E944B04623071058105910508F440
:101160004FC06AA37BA38CA39DA36AA17BA18CA182
:101170009DA10E94DB03611571058105910509F4AC
:101180003FC0DC01CB018D0D911DA11DB11D8EA3B2
:101190009FA3A8A7B9A72E893F893170C201821BDE
:1011A000930B67018E159F0508F46C014EA15FA19A
:1011B00068A579A58114910419F480E090E001C03C
:1011C000C30186010E943B0381111AC08E899F8949
:1011D000A88DB98D8C0D9D1DA11DB11D8E8B9F8B72
:1011E000A88FB98F6C0C7D1CEC18FD08F50180816F
:1011F00091818C0D9D1D9183808380CF80E006C0FE
:10120000198281E003C086E001C085E0DF91CF91C3
:101210001F910F91FF90EF90DF90CF90BF90AF9014
:101220009F908F907F906F905F904F9008952F9236
:101230003F924F925F926F927F928F929F92AF9266
:10124000BF92CF92DF92EF92FF920F931F93CF93B3
:10125000DF9300D000D0CDB7DEB79B0120902001F6
:10126000309021012114310409F4E4C0D101119618
:101270004C91119740FFE0C05A964D915D916D9150
:101280007C915D9769017C014C155D056E057F05BC
:1012900010F46A017B01F10146885788608C718CDB
:1012A000168A178A108E118EC114D104E104F1043C
:1012B00009F4C4C08280912CA12CB12CB9E0880C17
:1012C000991CAA1CBB1CBA95D1F7411451046104A6
:1012D0007104D9F1B1E04B1A510861087108C701D6
:1012E000B6016150710981099109A50194010E941B
:1012F000722529833A834B835C83C301B201A50124
:1013000094010E94722589819A81AB81BC818217E8
:101310009307A407B507C8F088279927DC01881927
:101320009909AA09BB0984219521A621B721F101B8
:10133000868B978BA08FB18FC81AD90AEA0AFB0A4D
:1013400062A173A184A195A139C0D1015E966D916E
:101350007D918D919C919197F10162A373A384A3D8
:1013600095A32CC00E944B04623071058105910544
:1013700008F45CC0D10116960D911D912D913C9100
:101380001997601771078207930708F04FC0F101A2
:1013900062A373A384A395A306891789208D318D39
:1013A000080D191D2A1D3B1D56960D931D932D9357
:1013B0003C935997C818D908EA08FB088C149D0477
:1013C000AE04BF0478F2F10186889788A08CB18CB6
:1013D0008C0C9D1CAE1CBF1C868A978AA08EB18E79
:1013E0000E94DB036115710581059105F9F0750116
:1013F0006401A9E0F694E794D794C794AA95D1F72D
:10140000F101028110E001501109222717FD2095FA
:10141000322FC022D122E222F322C60ED71EE81EAE
:10142000F91EC6A2D7A2E0A6F1A608C0F10111825A
:1014300081E005C086E003C085E001C080E00F9038
:101440000F900F900F90DF91CF911F910F91FF9010
:10145000EF90DF90CF90BF90AF909F908F907F9054
:101460006F905F904F903F902F900895EF92FF9272
:101470000F931F93CF93DF93CDB7DEB7AC970FB623
:10148000F894DEBF0FBECDBF7C01AB01809120017F
:1014900090912101892B69F1CE018196F701938307
:1014A0008283BE016F5F7F4FC7010E94DF058111FC
:1014B0001DC089818823B9F08C8584FF1CC04D89AB
:1014C0005E8960E070E0BA01552744270B8D1C8DC2
:1014D00020E030E0402B512B622B732BF70144832B
:1014E000558366837783C7010E940604833019F011
:1014F00003C086E001C084E0AC960FB6F894DEBF6E
:101500000FBECDBFDF91CF911F910F91FF90EF9054
:101510000895CF92DF92EF92FF920F931F93CF9394
:10152000DF93CDB7DEB7AC970FB6F894DEBF0FBE32
:10153000CDBF7C016B018091200190912101892B0D
:1015400009F4AEC0CE018196D70113969C938E9379
:1015500012976115710511F083E022C0C7010E9446
:101560000604A4C0F701208131812F70332705E0E4
:10157000220F331F0A95E1F700E210E0CE01019639
:101580000E943B0381118EC08981882309F48CC09D
:101590009C85853E91F4C7010E942405811114C0E9
:1015A000D7011C964D915D916D917C911F974115CE
:1015B000510561057105B1F605C08E3261F393FDE9
:1015C000EACF0BC0882349F0F701148615861686EA
:1015D0001786833011F0811169C0F6013996D70161
:1015E0001C964D915D916D917C911F97452B462BDB
:1015F000472B09F448C0CE010196DF01AE01475FD9
:101600005F4FFC016191CF01603269F0653009F4F0
:1016100065EE9D012F5F3F4FF9016C93841795078D
:1016200019F0D901EECFFD012985203291F08EE22B
:101630008083CF01029621832A85203231F0CF01A9
:10164000039622832B85203211F4FC0102C02383F0
:1016500034968C85D60118968C9318974D8D5E8D97
:101660006F8D78A14D935D936D937C931397898DC6
:101670009A8D15969C938E9314978F89988D1796B3
:101680009C938E9316971082C7010E942405833085
:1016900069F4F701148615861686178680E006C061
:1016A00086E004C081E090CF83E08ECFAC960FB689
:1016B000F894DEBF0FBECDBFDF91CF911F910F9188
:1016C000FF90EF90DF90CF900895CF93DF93DB01F1
:1016D000FC019A012230310538F0CD91DD91C193A2
:1016E000D19322503109F6CFDA01AE7FFB01EA0F28
:1016F000FB1FA80FB91F417055274E0F5F1FE4173E
:10170000F50719F081918D93FACFDF91CF9108956C
:101710000097C9F0DC01ED91FC911197309799F099
:101720002081222381F02681378112968D919C9110
:1017300013972817390739F481810E943F1E80FFD3
:1017400004C083E0089589E0089580E008950F9330
:10175000CF93DF93EC01C69601E09A01AB01BC0187
:1017600089810E94461E811123C0FE01EC5CFD4F61
:101770008081918185359A4AE9F4FE01E459FF4F51
:101780004081518162817381772746345144644599
:10179000710591F0C857DF4F488159816A817B817B
:1017A000772781E0463451446445710531F404C023
:1017B00083E003C082E001C080E0DF91CF910F9110
:1017C00008952F923F924F925F926F927F928F92E5
:1017D0009F92AF92BF92CF92DF92EF92FF920F93C0
:1017E0001F93CF93DF93CDB7DEB72E970FB6F89444
:1017F000DEBF0FBECDBF142FDC01ED91FC91119720
:10180000208130E0205331092A30310538F44181FC
:101810004A3321F43296ED93FC9302C020E030E08D
:10182000FB0111821082232B09F01DC2209124019B
:10183000309125013E872D872115310509F415C208
:1018400031832083D9018C91882361F011968C918A
:101850000E943F1E80FD06C0112309F408C282FDCC
:101860000AC205C2ED85FE851082118280E00E94C9
:101870003B1E80FDFEC1112311F082FDFCC140E042
:1018800050E0BA018D859E850E94A70B8130C1F47E
:10189000ED85FE85E850FE4F8081811102C08DE00C
:1018A000EDC1ED85FE85E450FE4F408051806280A1
:1018B0007380B301A2018D859E850E94A70B03C092
:1018C000412C512C3201833009F4D7C18111E7CF6B
:1018D000ED85FE85EF5BFF4F808191818115924000
:1018E000F1F6ED85FE85E45BFF4FC080D180E12CF1
:1018F000F12CC114D104E104F10441F4ED85FE851D
:10190000E65AFF4FC080D180E280F380AD85BE856E
:101910005E96CD92DD92ED92FC929197FD01EA5B8D
:10192000FF4FA081ED85FE85A3838FEF8A0F823064
:1019300008F0B5CFED5BFF4F1081ED85FE8512837A
:10194000112309F4ACCF212F30E0C9010197822384
:101950009323892B09F0A3CFE95BFF4F20803180CF
:10196000ED85FE8531862086C1018F709927892BF0
:1019700009F095CFE75BFF4F80809180A12CB12CBF
:1019800081149104A104B10441F4ED85FE85EA5A65
:10199000FF4F80809180A280B380ED85FE85EC5B57
:1019A000FF4F208131813A832983232B09F477CF9C
:1019B000B0E0A70196010E9453256D837E838F833B
:1019C0009887A981BA81CD01A0E0B0E089879A8784
:1019D000AB87BC87C10164E0969587956A95E1F76E
:1019E00029853A854B855C85280F391F411D511D7E
:1019F0008D819E81AF81B885280F391F4A1F5B1FDB
:101A000029833A834B835C8382169306A406B5062A
:101A100008F445CFC501B401621B730B840B950B11
:101A2000212F30E040E050E00E9472252115310561
:101A30004105510509F433CF263F9FE039074105A1
:101A4000510540F0263FAFEF3A074105510520F41C
:101A500012E003C011E001C013E049015A01B2E0F5
:101A60008B0E911CA11CB11CED85FE85828E938E80
:101A7000A48EB58E42A253A264A275A289859A85CE
:101A8000AB85BC85840D951DA61DB71D86A397A3A8
:101A9000A0A7B1A749815A816B817C81440D551D56
:101AA000661D771D46A757A760AB71AB1330C9F40D
:101AB000232809F0F4CEEE59FF4F80819181A28155
:101AC000B381ED85FE8582A793A7A4A7B5A7C5011D
:101AD000B40152E0660F771F881F991F5A95D1F7FE
:101AE0002DC0232809F4DBCE2D813E814F815885FE
:101AF000820F931FA41FB51FED85FE8582A793A7B4
:101B0000A4A7B5A7123039F4C501B401660F771F39
:101B1000881F991F13C0A3E0B0E0A50194010E94A3
:101B200053259695879577956795F1E08F229924AF
:101B3000AA24BB24680D791D8A1D9B1DDC01CB01E5
:101B400081509E4FAF4FBF4F29E0B695A79597950F
:101B500087952A95D1F7C816D906EA06FB0608F438
:101B60009ECE8FEF9FEFDC01ED85FE858687978700
:101B7000A08BB18BDF011286138614861586133075
:101B800009F054C01582EA59FF4F80819181A30169
:101B90009201280F391F411D511DFD01228B338BEE
:101BA000448B558B01E0BD016A5C7F4F81810E94AF
:101BB000461E81113BC0ED85FE85EC5CFD4F8081AA
:101BC000918185359A4A91F5ED85FE8586A997A97B
:101BD000A0ADB1AD82359245A146B14439F5ED8550
:101BE000FE85E65EFD4F80819181A281B3818237BF
:101BF0009247A144B146D1F4ED85FE85EE5DFD4FDF
:101C000080819181A281B381ED85FE858287938752
:101C1000A487B587E25EFD4F80819181A281B38167
:101C2000ED85FE8586879787A08BB18BAD85BE85B8
:101C30001C9380912201909123010196909323019E
:101C40008093220117969C938E931697FD0112AAFA
:101C500013AA14AA15AA148256961D921D921D92BB
:101C60001C92599704C08BE009C08CE007C080E04B
:101C700005C083E003C08AE001C081E02E960FB664
:101C8000F894DEBF0FBECDBFDF91CF911F910F91B2
:101C9000FF90EF90DF90CF90BF90AF909F908F908C
:101CA0007F906F905F904F903F902F9008954F924C
:101CB0005F926F927F92AF92BF92CF92DF92EF923C
:101CC000FF920F93CF93DF93EC018C81882309F46B
:101CD00046C04AA85BA86CA87DA86E0186E3C80E22
:101CE000D11C01E0A3019201B60189810E94921EDC
:101CF000811133C01C824EA15FA168A579A544164D
:101D000055066606770658F18E8D9F8DA8A1B9A15C
:101D1000840F951FA61FB71F481659066A067B0633
:101D2000F0F4AB80B12CE12CF12CC5018E199F0988
:101D30000297A8F08E8D9F8DA8A1B9A1480E591EBB
:101D40006A1E7B1E01E0A3019201B60189810E94F7
:101D5000921E8FEFE81AF80AE8CF81E001C080E018
:101D6000DF91CF910F91FF90EF90DF90CF90BF90D8
:101D7000AF907F906F905F904F900895CF92DF92D9
:101D8000EF92FF920F93CF93DF93EC016A017B01F7
:101D90008AA99BA9ACA9BDA9481759076A077B075F
:101DA000A9F0CE010E94570E811112C001E0A701D7
:101DB0009601BE016A5C7F4F89810E94461E811197
:101DC00007C0CAAADBAAECAAFDAA03C080E001C032
:101DD00081E0DF91CF910F91FF90EF90DF90CF9056
:101DE00008950F93CF93DF93EC010E94570E982F25
:101DF00081115BC08881833009F04DC08D818823BB
:101E000009F449C01AAA1BAA1CAA1DAACE01C6968B
:101E1000FC019E012A5C3D4FE217F30711F011927D
:101E2000FBCF25E53AEAFE01EC5CFD4F31832083D0
:101E300042E552E561E671E44EAB5FAB68AF79AF66
:101E400042E752E761E471E6FE01E65EFD4F408342
:101E50005183628373834E855F8568897989FE012A
:101E6000E25EFD4F40835183628373834A855B85C5
:101E70006C857D85FE01EE5DFD4F4083518362835D
:101E800073832A893B894C895D8901E0BC01898182
:101E90000E94921E1D8240E050E060E089810E9415
:101EA0000D1F91E0811101C090E0892FDF91CF914A
:101EB0000F91089560E070E0CB0108950F931F9398
:101EC000FC014250510961097109028D138D248D65
:101ED000358D025011092109310940175107620758
:101EE000730778F4A281B0E09A01AB010E945325F8
:101EF00006A517A520A931A9600F711F821F931F86
:101F000003C060E070E0CB011F910F910895CF9264
:101F1000DF92EF92FF920F931F93CF93DF93EC0129
:101F20006A017B01423051056105710508F45FC00B
:101F30004A8D5B8D6C8D7D8DC416D506E606F70641
:101F400008F055C08881823019F0833021F154C0E7
:101F500077276F2D5E2D4D2D0EA11FA128A539A528
:101F6000400F511F621F731FCE010E94BE0E8111D0
:101F700043C0CC0CDD1CEE1CFF1CE894C0F881E0D3
:101F8000D822EE24FF24FE01EC0DFD1D66A977A9E1
:101F900080E090E034C0B701A601E7E07695679550
:101FA00057954795EA95D1F70EA11FA128A539A508
:101FB000400F511F621F731FCE010E94BE0E811180
:101FC0001BC072E0CC0CDD1CEE1CFF1C7A95D1F717
:101FD0008CEFC82281E0D822EE24FF24FE01EC0D14
:101FE000FD1D66A977A980AD91AD9F7008C061E025
:101FF00070E080E090E003C06FEF7FEFCB01DF91F6
:10200000CF911F910F91FF90EF90DF90CF900895A7
:10201000EF92FF920F931F93CF93DF93EC018B010D
:102020007D836C834E815F81688579854130510560
:102030006105710511F482E087C0E881F981828D24
:10204000938DA48DB58D481759076A077B0798F7BC
:10205000411551056105710541F58081833049F4D1
:1020600042A553A564A575A54115510561057105E6
:10207000E1F41A861B861C861D86808591850817CB
:102080001907C8F682A593A5A4A5B5A5980154E0A3
:10209000369527955A95E1F7820F931FA11DB11D23
:1020A0008E879F87A88BB98B3DC0E28080E1E89E38
:1020B00070011124888199810E151F05F8F00E9486
:1020C000870FAB01BC014F3F8FEF580768077807B8
:1020D000D1F1423051056105710508F4ACCFE881BA
:1020E000F981828D938DA48DB58D481759076A07A4
:1020F0007B0708F0A0CF0E191F09DCCF4A875B874A
:102100006C877D870E945E0F980144E03695279585
:102110004A95E1F7620F731F811D911D6E877F87BE
:10212000888B998B0F701127B5E0000F111FBA959E
:10213000E1F70A5C1F4F88819981800F911F9B8B6B
:102140008A8B80E001C081E0DF91CF911F910F91D8
:10215000FF90EF900895CF93DF93EC016C817D8128
:102160000E940810811112C04E855F8568897989A7
:10217000888199810E94BE0E811108C0EA89FB897D
:1021800095EE9083E881F98191E09483DF91CF917E
:1021900008958F929F92AF92BF92CF92DF92EF926B
:1021A000FF920F931F93CF93DF93EC016A017B01A2
:1021B00048015901423051056105710508F46EC0AE
:1021C0004A8D5B8D6C8D7D8DC416D506E606F706AF
:1021D00008F064C08881823019F0833019F15AC048
:1021E00077276F2D5E2D4D2D0EA11FA128A539A596
:1021F000400F511F621F731FCE010E94BE0E81113E
:102200004AC0CC0CDD1CEE1CFF1CE894C0F891E029
:10221000D922EE24FF24F601F696EC0FFD1F9182E1
:10222000808239C0B701A601E7E07695679557959A
:102230004795EA95D1F70EA11FA128A539A5400F12
:10224000511F621F731FCE010E94BE0E811123C059
:1022500062E0CC0CDD1CEE1CFF1C6A95D1F79CEFF4
:10226000C92291E0D922EE24FF24F601F696EC0F64
:10227000FD1F408151816281738144275527662764
:10228000707F482959296A297B29408351836283B9
:10229000738301C082E091E09C8301C082E0DF9102
:1022A000CF911F910F91FF90EF90DF90CF90BF9053
:1022B000AF909F908F9008954F925F926F927F9210
:1022C0008F929F92AF92BF92CF92DF92EF92FF9246
:1022D0000F931F93CF93DF93EC012A013B0141152C
:1022E00051056105710599F48A849B84AC84BD8491
:1022F00081149104A104B104F9F04A8D5B8D6C8DB9
:102300007D8D84169506A606B706B0F419C00E9406
:10231000870F623071058105910508F48DC0CA8C64
:10232000DB8CEC8CFD8C6C157D058E059F0508F40F
:1023300085C05301420104C0812C912C5401839427
:10234000750164012FEFC21AD20AE20AF20A4A8D1D
:102350005B8D6C8D7D8DC416D506E606F70680F084
:1023600082E088169104A104B10428F440E030E032
:1023700020E090E066C0B2E0CB2ED12CE12CF12C15
:10238000B701A601CE010E94870F61157105810575
:102390009105B9F06F3F2FEF72078207920729F47A
:1023A0004FEF3FEF2FEF9FEF4CC06130710581057C
:1023B000910509F441C0C814D904EA04FB0411F6DC
:1023C000D5CF0FEF1FEF2FEF3FE0B701A601CE01F2
:1023D0000E94C91081112DC041145104610471047F
:1023E000C9F4CA86DB86EC86FD864E855F856889E2
:1023F00079894F3F8FEF580768077807A9F0415058
:102400005109610971094E875F87688B798B81E07B
:102410008D830AC097018601B301A201CE010E94FB
:10242000C9108823F1F205C04C2D3D2D2E2D9F2D76
:1024300008C0813009F4B4CF41E099CF462F372F3F
:10244000282F642F732F822FDF91CF911F910F912F
:10245000FF90EF90DF90CF90BF90AF909F908F90C4
:102460007F906F905F904F9008958F929F92AF9260
:10247000BF92CF92DF92EF92FF920F931F93CF9371
:10248000DF93EC016B010C811D810F5F1F4F011564
:10249000110511F484E0DCC08E859F85A889B98977
:1024A0000097A105B105B1F378012FE0E222FF24E6
:1024B000E114F10409F0B9C00196A11DB11D8E8788
:1024C0009F87A88BB98B4A855B856C857D858881C4
:1024D0009981FC01411551056105710531F4808533
:1024E000918508171907B0F6A0C0228130E021506D
:1024F0003109F801A4E0F695E795AA95E1F72E23B6
:102500003F23232B09F091C00E94870F4B015C01F0
:10251000623071058105910510F482E099C06F3F2A
:102520002FEF72078207920711F481E091C0888132
:102530009981FC01428D538D648D758D84169506AD
:10254000A606B70608F463C0CD2809F4A3CF4A85D0
:102550005B856C857D850E945C114B015C0161157A
:1025600071058105910509F472C06130710581051D
:10257000910599F26F3F2FEF720782079207A9F238
:10258000888199810E94570E8111CFCF88819981CE
:10259000FC01F6968A5C9D4FE817F90711F011923D
:1025A000FBCFC880D980B501A401C6010E945E0F8F
:1025B000F60162AB73AB84AB95ABD12CCC24C39446
:1025C000E881F9818281D816B0F4C482888199812A
:1025D0000E94570E8111A9CFE881F98182A993A9A0
:1025E000A4A9B5A90196A11DB11D82AB93ABA4AB63
:1025F000B5ABD394E5CF82A993A9A4A9B5A98D19A8
:102600009109A109B10982AB93ABA4ABB5AB8A86A2
:102610009B86AC86BD86B501A401888199810E9404
:102620005E0F6E877F87888B998B1D830C8305E0F7
:10263000EE0CFF1C0A95E1F7F6E3EF0EF11C888122
:1026400099818E0D9F1D9B8B8A8B80E001C087E056
:10265000DF91CF911F910F91FF90EF90DF90CF907E
:10266000BF90AF909F908F9008958F929F92AF925E
:10267000BF92CF92DF92EF92FF920F931F93CF936F
:10268000DF93EC018B01DB018C918F3211F08C35E3
:1026900039F40F5F1F4F1E821F82188619860AC0E9
:1026A000E881F98186899789A08DB18D8E839F837A
:1026B000A887B987F8018081803228F030E2F32EB4
:1026C00045E0E42E43C060E070E0CE010E940810B7
:1026D0001B8A1A8A4BC1EA89FB899081992309F4E4
:1026E0001BC1938593FD0CC0AC89BD899F01255FFB
:1026F0003F4FE217F307A9F041919D914917C9F3A4
:1027000060E070E0CE010E94351281110AC04E8552
:102710005F8568897989888199810E94BE0E8823A6
:10272000D1F2EC89FD899385882309F4F7C08430C0
:1027300009F01CC1292F247095FFF4C01E821F824E
:10274000188619861B8A1A8A2111EAC04801D80105
:102750008C910F5F1F4F8F32C9F38C35B9F3EC8921
:10276000FD899F01255F3F4FCF018217930721F01D
:10277000DC01FD92CD01F9CFD4018C918E3241F074
:1027800080E090E040E050E028E030E0A12C39C04B
:102790009401CF0100E010E00F5F1F4FD9014D9170
:1027A0009D014E3241F40330110509F4DEC0DC0115
:1027B0004D93CD01F1CF4F3229F04C3519F0413214
:1027C00008F0D3C0080D191D413210F484E201C095
:1027D00080E283879BC06FE2B61609F464C0ACE563
:1027E000BA1609F460C0BEE2BB1217C0283031052A
:1027F00009F0BBC0AA0CAA0C88E090E02BE030E006
:10280000A8018A010F5F1F4FB401640F751FDB0120
:10281000BC90B0E2BB15F8F244C08217930708F0F1
:10282000A4C0B7FE03C06A2D6360A62E6FE76B0DD0
:102830006F3120F060E26B0D6D3128F54E5F5F4F18
:10284000080D191DD801DC9060EC6D0D6F3328F078
:1028500060E86D0D6D3708F088C0B90161507109ED
:102860008617970708F081C0BC016F5F7F4F8F010B
:10287000080F191FD801BC9202966E0F7F1FDB0153
:10288000DC928A01BDCF6B2D70E043E051E0DA01AC
:10289000CD90AD01CC2011F1D12CC616D706B9F7D9
:1028A00064C044E001C040E0892B09F45EC080812F
:1028B000853E09F4E0822830310511F4AA0CAA0CF7
:1028C0008A2D8370813009F440618A2D8C708430A8
:1028D00009F44860080D191D438718C04FEB4B0DD4
:1028E0004A3120F4BA2DB260AB2E09C04FE94B0D2E
:1028F0004A3128F44A2D4160A42E60EEB60EAF0195
:10290000480F591FDA01BC9201967ACF60E070E05F
:10291000CE010E940810F9CE84E003CF92FF05C0DB
:1029200080E024C02223F9F021C0EA89FB89838555
:1029300084FF19C0428D538D60E070E0A881B98199
:102940008C91833059F484899589A0E0B0E0DC0152
:1029500099278827482B592B6A2B7B2B4E835F8323
:1029600068877987F3CE85E001C086E0DF91CF915B
:102970001F910F91FF90EF90DF90CF90BF90AF909D
:102980009F908F900895CF93DF93EC0194E04E8554
:102990005F85688979894115510561057105E1F007
:1029A000888199810E94BE0E811120C0EA89FB892D
:1029B00020812223D1F093859F73253E21F09F3003
:1029C00011F09830A9F460E070E0CE010E94351259
:1029D00081110CC090E0DBCF892F992349F01E862E
:1029E0001F86188A198A892F03C084E0982FF7CF91
:1029F000DF91CF9108951F93CF93DF93EC0160E0B7
:102A000070E00E940810182F811139C04E855F8533
:102A100068897989888199810E94BE0E182F811159
:102A20002EC0EA89FB898081853E41F0882331F000
:102A300061E070E0CE010E943512E5CF4E855F85E2
:102A400068897989888199810E94BE0E182F811129
:102A500016C0EA89FB899F01205E3F4FE217F3070A
:102A600011F01192FBCF6C897D894BE050E08A898F
:102A70009B890E94650BE881F98181E08483812F25
:102A8000DF91CF911F9108957F928F929F92AF9285
:102A9000BF92CF92DF92EF92FF920F931F93CF934B
:102AA000DF93EC016A017B0142305105610571053C
:102AB00008F451C08A8D9B8DAC8DBD8D4817590788
:102AC0006A077B0708F047C0772473948A8D9B8D33
:102AD000AC8DBD8DC816D906EA06FB0660F4B701B9
:102AE000A601CE010E94870F4B015C0161157105A3
:102AF0008105910511F480E02FC081E088169104D2
:102B0000A104B10441F18FEF88169806A806B80613
:102B100001F100E010E09801B701A601CE010E948A
:102B2000C910811119C04E855F85688979894F3F29
:102B30008FEF58076807780749F04F5F5F4F6F4F77
:102B40007F4F4E875F87688B798B7D82750164012B
:102B5000BDCF81E001C082E0DF91CF911F910F9145
:102B6000FF90EF90DF90CF90BF90AF909F908F90AD
:102B70007F900895811112C0E0912401F091250108
:102B8000309709F010826115710511F0FB01108278
:102B9000709325016093240180E008958BE00895EF
:102BA0004F925F926F927F929F92AF92BF92CF921D
:102BB000DF92EF92FF920F931F93CF93DF93CDB7E6
:102BC000DEB7A4970FB6F894DEBF0FBECDBF5C0191
:102BD0007CA36BA3F42E009709F4ECC0DC011D92DA
:102BE0001C924E71BE016F5F7F4FCE0183960E9493
:102BF000E10B8111E6C0CE0147969E8B8D8B6BA1B8
:102C00007CA1CE0101960E9435130B891C8981118C
:102C100004C00115110509F486E0BF2DBF719B2E7C
:102C20009F2D9C7109F46BC0882371F0843021F4CE
:102C3000CE0101960E94FB14E92DE8609E2E0B89BF
:102C40001C89882349F0BDC0D8011B968C918171E5
:102C500009F0B6C0F2FCB0C093FE5CC0F801168665
:102C60001786108A118A1386D801148E158E168E37
:102C7000178EE981FA815A96CD90DC905B97E12C12
:102C8000F12C8081833069F454964D915C91559775
:102C900060E070E0BA0155274427C42AD52AE62A05
:102CA000F72AD8015B961C921E925A9755961C9251
:102CB0001E92549781E08483C114D104E104F1048D
:102CC00049F142A853A864A875A8B701A601CF018D
:102CD0000E944415811175C089819A81B1E0CB1A97
:102CE000D108E108F108FC01C286D386E486F586A6
:102CF000B301A2010E94BE0E882361F062C081115F
:102D000060C0D8011B968C9184FD58C0F1FE02C0B2
:102D100080FD56C093FE03C0B92DB0629B2EE980A2
:102D2000FA80F70142A953A964A975A9D5015A9659
:102D30004D935D936D937C935D975F961C930E937B
:102D40005E9714969C92F801828D938DA0E0B0E07E
:102D5000F7012081233061F4F8014489558960E04E
:102D600070E0BA0155274427842B952BA62BB72B4F
:102D7000F50186879787A08BB18BF801848D958D9F
:102D8000A68DB78DF50182879387A487B5871682B4
:102D9000178210861186168A178A108E118EF1827C
:102DA000E082D70116968D919C9117979383828329
:102DB00080E007C089E005C088E003C084E001C06E
:102DC00087E0A4960FB6F894DEBF0FBECDBFDF91AB
:102DD000CF911F910F91FF90EF90DF90CF90BF9018
:102DE000AF909F907F906F905F904F9008952F923B
:102DF0003F924F925F926F927F928F929F92AF928B
:102E0000BF92CF92DF92EF92FF920F931F93CF93D7
:102E1000DF93EC015B017A014901F9011182108213
:102E20000E94880B81110BC18C8187FD05C180FF39
:102E300005C18A859B85AC85BD854E815F8168858E
:102E40007985841B950BA60BB70BA70160E070E09A
:102E500084179507A607B70708F075C07C0173C0F3
:102E60004E815F8168857985DB01CA019170AA274F
:102E7000BB27892B8A2B8B2B09F0B0C088819981C5
:102E8000FC01128111502A013B0129E076946794DC
:102E9000579447942A95D1F7142109F459C06880B2
:102EA00079804A895B896C897D89C3010E945E0FA4
:102EB000611571058105910509F46AC01B012C019A
:102EC000210E311C411C511C6701CD2CDD24C69400
:102ED000C114D10409F47EC0F3018281212F30E0B6
:102EE000A601420F531F90E08417950718F46C0158
:102EF000C21AD30A0C2DA2019101B501F3018181FF
:102F00000E94461E811180C0E881F981848181116F
:102F100043C0DC2CCC24DD0CAC0CBD1C8E819F810D
:102F2000A885B9858C0D9D1DA11DB11D8E839F8324
:102F3000A887B987F401808191818C0D9D1D9183B3
:102F40008083EC18FD08E114F10409F089CF72C008
:102F5000452B462B472B29F46E857F8588899989D7
:102F600006C04A895B896C897D890E94870F62301F
:102F700071058105910560F06F3FFFEF7F078F07B7
:102F80009F0709F441C06A8B7B8B8C8B9D8B87CF0D
:102F90008C8180688C8350C082A993A9A4A9B5A90B
:102FA00082199309A409B509A60160E070E08417AD
:102FB0009507A607B70708F0ACCFBF016A5C7F4F43
:102FC000982F8827990F40E052E08A0D9B1D0E94A0
:102FD000650B9FCF2E8A3F8A488E598E8E819F81A6
:102FE000917020E032E0281B390B67012E153F0558
:102FF00008F469014E895F89688D798D888199818E
:103000000E94BE0E882329F08C8180688C8381E029
:1030100016C08E819F81A885B9859170AA27BB278C
:10302000C69668817981680F791FA601C5010E9443
:10303000650B72CF80E003C082E001C087E0DF91C2
:10304000CF911F910F91FF90EF90DF90CF90BF90A5
:10305000AF909F908F907F906F905F904F903F9038
:103060002F9008952F923F924F925F926F927F928E
:103070008F929F92AF92BF92CF92DF92EF92FF9288
:103080000F931F93CF93DF93EC015B017A0119013A
:10309000F901118210820E94880B81115AC18C8122
:1030A00087FD54C181FF54C18A859B85AC85BD8550
:1030B000AC01BD014E0D5F1D611D711D4817590703
:1030C0006A077B0710F4E12CF12C11E0E114F10404
:1030D00009F442C04E815F8168857985DB01CA01B0
:1030E0009170AA27BB27892B8A2B8B2B09F0E3C071
:1030F000E881F981028101502A013B01A9E076941F
:10310000679457944794AA95D1F7042109F047C0D2
:10311000452B462B472BA1F46E857F85888999899D
:10312000611571058105910551F540E050E0BA0146
:10313000CF010E945C116E877F87888B998B07C0B7
:103140004A895B896C897D89CF010E945C11611578
:1031500071058105910599F48E819F81A885B985B6
:103160004A855B856C857D85481759076A077B070B
:1031700008F0E7C08A879B87AC87BD87E2C06130D3
:1031800071058105910569F16F3FFFEF7F078F079B
:103190009F0709F4A6C06A8B7B8B8C8B9D8B8881E3
:1031A0009981FC0142A853A864A875A84E895F893B
:1031B000688D798D441655066606770621F40E94BF
:1031C000570E81118EC0888099804A895B896C89ED
:1031D0007D89C4010E945E0F61157105810591050D
:1031E00021F48C8180688C83B1C02B013C01400E9E
:1031F000511C611C711C6701CD2CDD24C694C114C7
:10320000D104E9F1F4018281202F30E0A601420FC0
:10321000531F90E08417950718F46C01C21AD30A63
:103220000C2DA3019201B501F40181810E94921E2F
:10323000811157C088819981FC0142A953A964A9D1
:1032400075A944195509660977092601612C712C65
:10325000441555056605770570F4BA01762F662783
:10326000770F6A0D7B1D40E052E0C6960E94650B09
:10327000E881F9811482DC2CCC24DD0C4AC04E811B
:103280005F81688579858A859B85AC85BD85481772
:1032900059076A077B0758F0C4010E94570E811135
:1032A00020C0E881F98142AA53AA64AA75AA4E8A6D
:1032B0005F8A688E798E8E819F81917020E032E0E6
:1032C000281B390B67012E153F0508F469014E894B
:1032D0005F89688D798D888199810E94BE0E8823CF
:1032E00029F08C8180688C8381E033C08E819F813E
:1032F000A885B9859170AA27BB27C69628813981F0
:10330000A601B501820F931F0E94650BE881F98128
:103310001483AC0CBD1C8E819F81A885B9858C0D52
:103320009D1DA11DB11D8E839F83A887B987F101C3
:10333000808191818C0D9D1D91838083EC18FD0807
:10334000C5CE8C8180628C8380E003C082E001C0A6
:1033500087E0DF91CF911F910F91FF90EF90DF9069
:10336000CF90BF90AF909F908F907F906F905F9025
:103370004F903F902F900895CF93DF93EC010E94E0
:10338000880B811135C09C8195FF32C04A8D5B8DC1
:103390006C8D7D8D888199810E94BE0E811128C01F
:1033A000EE8DFF8D8385806283874A855B856C8582
:1033B0007D85448F558F668F778F4E855F856889B1
:1033C0007989538F428F758B648B168A178A108E7A
:1033D000118E138A128A8C818F7D8C83E881F9810A
:1033E00081E0848388819981DF91CF910C94F10EE3
:1033F000DF91CF910895CF93DF93EC010E94BC1928
:10340000811102C019821882DF91CF9108950F9324
:103410001F93CF93DF93CDB7DEB7A4970FB6F89481
:10342000DEBF0FBECDBF9CA38BA340E0BE016F5F8C
:103430007F4FCE0183960E94E10B81113CC0CE01EB
:1034400047969E8B8D8B6BA17CA1CE0101960E942D
:10345000351381112DC0AB89BC89109739F4E981EE
:10346000FA814F81588569857A851DC01B969C918C
:103470001B9794FF1FC0E981FA815A964D915C9188
:103480005B9760E070E09081933069F454960D9101
:103490001C91559720E030E0980111270027402B20
:1034A000512B622B732B468B578B608F718F03C010
:1034B000843009F485E0A4960FB6F894DEBF0FBE01
:1034C000CDBFDF91CF911F910F910895EF92FF92A1
:1034D0000F931F93CF93DF93CDB7DEB72E970FB621
:1034E000F894DEBF0FBECDBF8C017E876D8700973D
:1034F00009F456C040E0BC01CE010D960E94E10BDC
:10350000D801ED90FC901197811146C0CE01019633
:1035100055969C938E9354976D857E85C8010E9425
:10352000351381112FC0D8015296ED91FC9153971C
:103530003097D9F0838584FF2AC0428D538D60E097
:1035400070E0D7018C91833059F484899589A0E08B
:10355000B0E0DC0199278827482B592B6A2B7B2B5D
:10356000F8014683578360877187D70116968D913E
:103570009C911797F8019383828360E070E0C80103
:103580000E940810843019F0882361F001C085E0A2
:10359000D8011D921C9207C0F8011182108203C04D
:1035A00089E001C080E02E960FB6F894DEBF0FBE12
:1035B000CDBFDF91CF911F910F91FF90EF900895B4
:1035C000AF92BF92CF92DF92EF92FF920F931F9331
:1035D000CF93DF93CDB7DEB72C970FB6F894DEBF4D
:1035E0000FBECDBF8C017B010E94880BD82E8111AC
:1035F0009CC0E114F10431F460E070E0C8010E9465
:10360000081092C0CE010196D80155969C938E93D6
:103610005497C8010E94C314843031F4F80116860F
:103620001786108A118A02C081117EC0F70139966F
:10363000D8011E964D915D916D917C915197452BCE
:10364000462B472B09F462C05296AD90BC9053971D
:10365000A501CF0120E030E0FC01DA016D91AD0160
:10366000603271F0653009F465EEFC013196DC01E1
:103670006C932F5F3F4F2830310511F0CF01ECCF15
:10368000D50118968C918032D1F08EE2DF018D93B6
:103690009D01B501685F7F4FCF010496F901DB0101
:1036A000CD90BD01B0E2CB1651F0A9014F5F5F4F45
:1036B000C0824817590711F09A01F0CFFC01D501DB
:1036C0001B968C91D70118968C93D5015C964D91E1
:1036D0005D916D917C915F97D7014D935D936D9353
:1036E0007C931397D50158968D919C915997D7014A
:1036F00015969C938E931497D50156968D919C9117
:103700005797D70117969C938E931697108260E077
:1037100070E0C8010E943512843031F4F801168639
:103720001786108A118A01C0D82E8D2D2C960FB6BF
:10373000F894DEBF0FBECDBFDF91CF911F910F91E7
:10374000FF90EF90DF90CF90BF90AF900895CF9211
:10375000DF92EF92FF92CF93DF93CDB7DEB7EA9778
:103760000FB6F894DEBF0FBECDBF9AAF89AF41E070
:10377000BE01695E7F4FCE01C9960E94E10B8111A7
:1037800082C0CE018D969CA78BA769AD7AADCE0184
:1037900047960E943513811176C0EBA5FCA5938551
:1037A00095FD53C0E9A5FAA5309729F0938590FFC0
:1037B00003C087E001C086E0C28CD38CE12CF12CE1
:1037C000AF89B88D9C91933059F44489558960E054
:1037D00070E0BA0155274427C42AD52AE62AF72AD9
:1037E000811151C0838584FF32C082E0C816D104A4
:1037F000E104F10408F444C046E150E0BE01695E12
:103800007F4FCE0101960E94650BCF82D886E98654
:10381000FA8662E070E0CE0101960E9408108111E4
:1038200032C0CE0101960E94C314882359F1EF895A
:10383000F88D46895789608D718DC416D506E606C8
:10384000F70601F1843019F01EC086E01CC0CE01DD
:1038500047960E94AB10811116C0C114D104E10437
:10386000F10429F48F89988D0E94F10E0CC0B701E4
:10387000A6018F89988D0E944415811104C0F2CF52
:1038800082E001C087E0EA960FB6F894DEBF0FBE73
:10389000CDBFDF91CF91FF90EF90DF90CF90089553
:1038A000EF92FF920F931F93CF93DF93CDB7DEB7C5
:1038B000CF54D1090FB6F894DEBF0FBECDBF6096CE
:1038C0009FAF8EAF60978B0141E0BE01695E7F4F75
:1038D000CE01825B9F4F0E94E10B8111CEC08F8988
:1038E000988D9A838983CE018E5B9F4F9CA78BA76F
:1038F00060966EAD7FAD6097CE0147960E943513FE
:103900008111BBC0EBA5FCA5838585FDA8C089A559
:103910009AA5009709F4A1C0BC01655F7F4F45E1FE
:1039200050E0CE018D960E94650B46E150E0BE014D
:10393000695E7F4FCE0101960E94650BB801CE01F2
:1039400001960E943513882309F485C0843009F05C
:1039500094C0CE0101960E94FB1481118EC0EB88A9
:10396000FC8843E150E0BE01615D7F4FC7010D96C9
:103970000E94650B8DA58062F70183870F89188DE2
:1039800081E0F80184834D8D5E8D6F8D78A18F81EC
:103990009885A985BA85481759076A077B0709F4EE
:1039A00060C0F701838584FF5CC0428D538D60E069
:1039B00070E0F8018081833061F4F7018489958992
:1039C000A0E0B0E0DC0199278827482B592B6A2B0F
:1039D0007B2BC8010E945E0FAB01BC014115510554
:1039E0006105710509F448C0C8010E94BE0EEF8947
:1039F000F88D811142C0DF01A95ABF4F8C918E32E0
:103A000081F520818F819885A985BA85233049F475
:103A100042A553A564A575A584179507A607B70702
:103A200029F0582F492F3A2F2B2F04C050E040E0A7
:103A300030E020E0DF01A059BF4F852F942F8D93F8
:103A40009C93DF01A659BF4F832F922F8D939C9398
:103A500081E0848306C088E010C084E00EC086E068
:103A60000CC0CE0147960E94AB10811106C08F8911
:103A7000988D0E94F10E01C082E0C15BDF4F0FB64E
:103A8000F894DEBF0FBECDBFDF91CF911F910F9194
:103A9000FF90EF9008958EBD0DB407FEFDCF8EB55B
:103AA00008956AE070E00E945E25609326018FEF22
:103AB0000E944B1D282F8F3F21F0809126018111FC
:103AC000F6CF81E090E02F3F11F080E090E0089584
:103AD0002A9A8FEF0C944B1DCF93DF9300D0CDB774
:103AE000DEB72A988FEF0E944B1D84EF91E00E9471
:103AF000511D009739F489839A830E94681D89813A
:103B00009A8102C081E090E00F900F90DF91CF91F9
:103B10000895FF920F931F93CF93DF93C82FD42F55
:103B2000152F062FF72E87FF09C040E050E0BA019D
:103B300087E30E94891D823088F5CF770E94681D37
:103B40000E946C1D892B49F18C2F80640E944B1DB3
:103B50008F2D0E944B1D802F0E944B1D812F0E9494
:103B60004B1D8D2F0E944B1DCC2321F0C83021F01E
:103B700081E003C085E901C087E80E944B1DCC307D
:103B800019F48FEF0E944B1DCAE08FEF0E944B1D6E
:103B900087FF04C0C150C9F701C08FEFDF91CF91FB
:103BA0001F910F91FF900895EF92FF921F93CF9373
:103BB000DF931F92CDB7DEB7182F7B0184E180938E
:103BC00027018FEF99830E944B1D99818F3F29F424
:103BD000809127018111F5CF21C08E3FF9F4E12FAB
:103BE000F92F8FEF8EBD0DB407FEFDCF9EB59083EC
:103BF0008EBD0DB407FEFDCF9EB5918392E0E91A0C
:103C0000F1083296E114F10469F78FEF0E944B1D21
:103C10008FEF0E944B1D81E090E002C080E090E0B9
:103C20000F90DF91CF911F91FF90EF9008959C012D
:103C30003E5FFC0140814EBD0DB407FEFDCFFC018F
:103C400041814EBD0DB407FEFDCF0296821793074A
:103C500081F78FEF0E944B1D8FEF0E944B1D8FEF5E
:103C60000E944B1D282F2F7181E090E0253011F02C
:103C700080E090E008951092000180E008958111A5
:103C800003C080910001089581E008950F93CF93C0
:103C9000DF93EB01BA01A90181113DC00023D9F1E5
:103CA0008091000180FD39C080915F0383FD07C0D2
:103CB00089E0440F551F661F771F8A95D1F70130A1
:103CC00071F481E10E94891D81111EC060E072E0E3
:103CD000CE010E94D41D892BB9F000E015C082E10D
:103CE0000E94891D811110C060E072E0CE010E9427
:103CF000D41D892B19F0DE5F0150B1F740E050E090
:103D0000BA018CE00E94891D0E94681D81E00111AA
:103D100005C080E003C084E001C083E0DF91CF9163
:103D20000F910895CF92DF92EF92FF920F93CF936E
:103D3000DF93EB0169017A01811162C0002309F46C
:103D40005FC08091000180FD5DC08091000182FD17
:103D50005BC080915F0383FD07C099E0CC0CDD1C44
:103D6000EE1CFF1C9A95D1F70130C9F4B701A601EA
:103D700088E10E94891D882311F001E03AC084EF98
:103D800091E00E94511D892BC1F38EEF0E944B1DC3
:103D9000CE010E94171E892B61F100E02AC08670B7
:103DA00039F0402F50E060E070E087E90E94891D03
:103DB000B701A60189E10E94891D81111AC084EF13
:103DC00091E00E94511D892B59F08CEF0E944B1DF0
:103DD000CE010E94171E892B19F0DE5F015079F782
:103DE00084EF91E00E94511D892B39F28DEF0E94E2
:103DF0004B1D0E94681D81E0011107C080E005C0D5
:103E000084E003C083E001C082E0DF91CF910F9195
:103E1000FF90EF90DF90CF900895CF92DF92EF92D6
:103E2000FF920F931F93CF93DF93CDB7DEB76097C9
:103E30000FB6F894DEBF0FBECDBF7A0181118CC1E1
:103E40008091000180FD8AC1862F90E08F3091051E
:103E500008F07BC1FC01EC5CFF4F0C9494250E94A0
:103E60006C1D33C140E050E0BA0189E00E94891D19
:103E7000882311F011E06CC160E170E0CE01019681
:103E80000E94D41D892BB1F39981929596959695B0
:103E90009370088549855A85913011F50F7310E0AC
:103EA00020E030E09801112700270F5F1F4F2F4FB0
:103EB0003F4F842F90E0982F8827850F911D080F82
:103EC000191F211D311DAAE0000F111F221F331FD2
:103ED000AA95D1F7F701008311832283338337C179
:103EE0004295469546954370F4E00F9FC00111241A
:103EF000840F911D01962F81237030E0322F2227ED
:103F0000330F330F820F931FA0E0B0E02E812F708C
:103F10004B85441F4427441F240F352F3370330F24
:103F2000230F275004C0880F991FAA1FBB1F2A9573
:103F3000D2F77BC080915F0340E050E0BA0182FF7E
:103F40002BC08DE80E94891D811194CF8FEF0E94B4
:103F50004B1D60E170E0CE0101960E94D41D892BBB
:103F600009F488CF10E38FEF0E944B1D1150D9F751
:103F70002B8522952F7080E190E0A0E0B0E004C096
:103F8000880F991FAA1FBB1F2A95D2F7F7018083BC
:103F90009183A283B383DCC089E00E94891D8111D3
:103FA00069CF60E170E0CE0101960E94D41D892B9B
:103FB00009F460CF90915F032B858C8591FF16C02B
:103FC000881F8827881F90E001962F73820F911D0C
:103FD000820F911D2E8522952695269523702150BE
:103FE00002C0880F991F2A95E2F71DC0982F937081
:103FF000829586958770482F50E0F8E09F9F400D8E
:10400000511D11244F5F5F4F2C7730E03595279578
:10401000359527952F5F3F4F429FC001439F900DDD
:10402000529F900D1124A0E0B0E0F70180839183AE
:10403000A283B3838CC080915F03867009F41ACF8A
:10404000AE014F5F5F4F6BE080E00E940D1F81115A
:1040500011CF8981829586958695837019F48B8519
:1040600086FF08CFF7014081518162817381C4804E
:10407000D580E680F78080915F0383FD0EC029E044
:10408000440F551F661F771F2A95D1F739E0CC0CD6
:10409000DD1CEE1CFF1C3A95D1F780E20E94891DC1
:1040A0008111E8CEB701A60181E20E94891D81112C
:1040B000E1CE40E050E0BA0186E20E94891D811104
:1040C000D9CE80E395E70E94511D11E0892B09F4B8
:1040D0003FC03DC080915F03FA01808338C040E05B
:1040E00050E0BA0189E004C040E050E0BA018AE043
:1040F0000E94891D8111BECE60E170E022C040E0C7
:1041000050E0BA018AE30E94891D8111B3CE870174
:104110000C5F1F4F8FEF0E944B1DF70181937F01B2
:10412000E017F107B9F713C040E050E0BA018DE89D
:104130000E94891D81119ECE8FEF0E944B1D60E46D
:1041400070E0C7010E94D41DC0CF14E001C010E090
:104150000E94681D812F03C084E001C083E0609647
:104160000FB6F894DEBF0FBECDBFDF91CF911F9188
:104170000F91FF90EF90DF90CF90089580912701ED
:10418000882319F08150809327018091260188238C
:1041900019F08150809326010895809107048823A7
:1041A000A9F0E0910604F0E0EB51FC4F8081F89417
:1041B000909107049150909307047894909106048D
:1041C0009F5F9F719093060490E008958FEF9FEF9B
:1041D00008950F931F93CF93DF938C01EB010E94FF
:1041E000CD208F3F2FEF920761F490919C04809136
:1041F0009C04891B8230D8F32197209781F78FEF99
:1042000003C0F801808380E0DF91CF911F910F916F
:1042100008951F920F920FB60F9211242F933F9380
:104220004F935F936F937F938F939F93AF93BF93BE
:10423000EF93FF9380912B018F5F80932B01883246
:1042400020F00E94BE2010922B0180912B018370E0
:1042500029F480919C048F5F80939C0480912A01B3
:104260008823C9F08091C00087FF15C08091C600E7
:10427000E0910504F0E0EB51FC4F8083F8948091CD
:1042800007048F5F809307047894809105048F5F03
:104290008F7180930504FF91EF91BF91AF919F9132
:1042A0008F917F916F915F914F913F912F910F90DF
:1042B0000FBE0F901F9018956DE974E080E00C948C
:1042C000BA15FC013396AC014D575F4F20E030E04A
:1042D0006191260F311DE417F507D1F74081FC01EC
:1042E000EC57FF4F808150E0582B81E04217530775
:1042F00009F080E008954F925F926F927F929F92B3
:10430000AF92BF92CF92DF92EF92FF920F931F93E3
:10431000CF93DF9300D000D01F92CDB7DEB71092BD
:104320002901109228011092280481E080932A012B
:10433000C12CD12C00E010E0E12CF12C6AE0962E8B
:1043400064E670E0CE0105960E94E92081110DC15E
:104350008D81843009F44FC048F4813039F18230C6
:1043600009F003C1412C44E0542E23C08134A1F054
:10437000813691F0883109F0F8C064E670E0CE0132
:1043800005960E94E9208111F0C08D81883109F0E5
:10439000ECC02FEF3FEF31C00E94930088E10E94F4
:1043A000930088E10E9493001DEF0CC150E8452E58
:1043B000512C80936003AA24A394B12C320125E0F0
:1043C000620E711CA614B70468F469E170E0C501BF
:1043D000805A9C4F0E94E9208111C7C03FEFA31A69
:1043E000B30AF0CF80916203809590916103981396
:1043F000BCC0920102C020E030E010E02F3F4FEF40
:10440000340761F0232B91F488E094E00E94FB19BB
:1044100086E00E94930000E010E0BCC086E00E94AD
:10442000930088E094E00E94FB19CCC08091610366
:1044300097012827C901882321F085E10E94930074
:1044400091C0E114F10409F05AC0809163038823FC
:1044500009F44FC080E693E00E946121882309F4AB
:104460007BC0E3E6F3E0A8E2B4E080E090E09F01E7
:104470004191442331F08437910519F001964D9311
:10448000F6CFFC01E85DFB4F1082809128019091EE
:104490002901F90131962191222361F0AC01949E0A
:1044A000C001959E900D112430E020533109820FF8
:1044B000931FF1CF909329018093280180910101EE
:1044C000909102010E94A71B60910101709102016D
:1044D0004AE088E094E00E94D01586E00E949300B4
:1044E000CC24C394D12C00E010E0EE24E394F12C12
:1044F00027CF86E00E94930001E010E04BC080E6E9
:1045000093E00E946121882339F140912801509164
:104510002901413851054CF0405851095093290167
:104520004093280140E850E007C010922901109202
:1045300028014115510549F09E012F5F3F4F63E669
:1045400073E088E094E00E94321886E00E949300B5
:104550005FEFE51AF50A03C085E10E949300CC24C1
:10456000C394D12C00E010E0EBCEC114D10411F0C3
:104570000F5F1F4F063011050CF4E2CE88E10E9458
:10458000930088E10E94930088E094E00E94FB1968
:1045900010E018C088E294E00E94A71B68E274E073
:1045A00080910101909102010E94501C012B29F081
:1045B00010922A011091280105C000E010E0E12CC2
:1045C000F12CBECE812F0F900F900F900F900F9077
:1045D000DF91CF911F910F91FF90EF90DF90CF90DF
:1045E000BF90AF909F907F906F905F904F90089595
:1045F000CF93DF9300D000D000D0CDB7DEB714BE8C
:1046000080E68AB91BB88EE284B98CE185B993E063
:1046100097B918B8409A87B18C6387B91092C500D2
:1046200086E28093C40086E08093C20080E180939C
:10463000C10022E02093C0005098589A5198599890
:104640001092B0001092B20027E02093B1008EBB10
:104650001ABC1BBC9093690081E08DBB78948824C0
:1046600083940AE010E030E6432E33EE532E36E119
:10467000632E712CA12C42E0B42E8DE994E00E94AF
:10468000CC06811186C1409880E18EBB1ABC1BBC50
:1046900030E080E8982E92E0292E23EA322E109204
:1046A000480387BA39830E94E00039818823D1F317
:1046B0008230D1F48CE58093B30082E08093B00027
:1046C00083E08093B10080917000826080937000DD
:1046D0008DE00E9493008AE00E9493008EE30E9486
:1046E00093000E945C215BC180915D0390915E0309
:1046F000019609F44AC1409A80915D0390915E034E
:1047000020914903223010F010925B0323E0E22F46
:10471000F0E0E25DFE4FB8010E945E25805D80837F
:10472000CB012150A0F766E870E082E391E00E949F
:10473000A9258EE291E00E94E907833009F415C1B2
:10474000811115C146E453E06CE070E08EE291E027
:104750000E94450881110BC1809146039091470347
:104760000C9709F000C18091360190913701A0911A
:104770003801B091390187359144A645B54409F017
:10478000F2C01D8246E453E068E070E08EE291E002
:104790000E9445088111EBC0809146039091470328
:1047A000089709F0E0C0C0903201D0903301E0904A
:1047B0003401F090350180912E0190912F01A0914C
:1047C0003001B09131018C34E9E49E07E3E5AE0796
:1047D000E4E5BE0709F4AEC078F486362DE692070C
:1047E00024E7A20720E2B207B9F084349944A34534
:1047F000B04509F0B8C09EC08436E1E69E07E4E704
:10480000AE07E1E6BE0709F469C086369146A346C5
:10481000B44709F0A8C08EC0C0FE05C02FEFC21A71
:10482000D20AE20AF20AD701C6014097A109B109EA
:1048300081379105A105B10508F095C046E453E024
:10484000B6018EE291E00E944508811190C08091EE
:10485000460390914703A0E0B0E08C159D05AE059E
:10486000BF0509F080C080912E01813009F07BC026
:10487000609130016D83623011F4F69A01C0F698B0
:1048800080913C01883029F0803109F06CC0F79AA2
:1048900001C0F79884FF03C08D81880F8D8320911C
:1048A0003201309133014091340150913501DA01E8
:1048B000C90180549F41A109B10981349C49A105D6
:1048C000B10508F050C0C301B2010E947225215009
:1048D0003109309389002093880054CFFD81FF2354
:1048E00009F441C0C11424E0D206E104F104D8F176
:1048F0008F2F90E00197AA2797FDA095BA2FAC01C2
:10490000BD014C215D216E217F21452B462B472B7C
:1049100051F54091B3045091B4046091B504709185
:10492000B60484239523A623B723892B8A2B8B2BAC
:10493000D1F438C0C0FE05C06FEFC61AD60AE60A29
:10494000F60A6091B3047091B4048091B50490911B
:10495000B6046C0D7D1D8E1D9F1D0E9417098823B6
:1049600009F410CF04C034E003C033E001C032E0EA
:10497000409897BC98BC8091810081111092810071
:10498000313009F48CCE10925B03323009F087CEBF
:10499000409A0E94AA00882309F46FCE8BCE0E9411
:1049A0007B21FDCF409A84B5882391F080918100CE
:1049B000811125C010925C0310922E0310922D01DC
:1049C000109280008AE08093810020926F0017C0CF
:1049D00034BC85BC20E02F5F27BD28BD84E690E075
:1049E0002E8349835A836B837C830E9452012E81DC
:1049F00049815A816B817C81203869F7D7CFCA0100
:104A00009170B501681B790B46E453E080E090E0BB
:104A10000E944508882311F032E03DC08091460392
:104A200090914703C81AD90AE108F10881E0C81635
:104A300084E0D806E104F10410F4960102C020E0FD
:104A400034E046E453E0B90180E090E02E833983FE
:104A50000E94450880914603909147032E81398139
:104A600028173907C9F6C21AD30AE108F1080E94CB
:104A7000E000882331F080915D0390915E03019600
:104A800049F080914603909147038115944071F25B
:104A900030E001C031E080915C038111FCCF97BC14
:104AA00098BC409865CF0E949A25A59F900DB49F11
:104AB000900DA49F800D911D11240895AA1BBB1B6E
:104AC00051E107C0AA1FBB1FA617B70710F0A61B0E
:104AD000B70B881F991F5A95A9F780959095BC012F
:104AE000CD010895A1E21A2EAA1BBB1BFD010DC02A
:104AF000AA1FBB1FEE1FFF1FA217B307E407F5078E
:104B000020F0A21BB30BE40BF50B661F771F881F69
:104B1000991F1A9469F760957095809590959B01FF
:104B2000AC01BD01CF010895EE0FFF1F0590F49178
:104B3000E02D0994A29FB001B39FC001A39F700D07
:104B4000811D1124911DB29F700D811D1124911D95
:104B50000895FB01DC0105900D920020E1F7089516
:044B6000F894FFCFF7
:104B6400011201222A2B2C3A3B3C3D3E3F5B5D7CEB
:0C4B74007F00596D6F6474656D70000067
:00000001FF
