:100000000C9437000C9401040C9449000C944900A2
:100010000C9449000C9449000C9449000C9449003C
:100020000C9449000C9449000C9449000C94E4038E
:100030000C9449000C9449000C9449000C9449001C
:100040000C9449000C9449000C9449000C9449000C
:100050000C9449000C9449000C9449000C944900FC
:100060000C9449000C9449002E574156000011246D
:100070001FBECFEFD8E0DEBFCDBF13E0A0E0B1E000
:1000800001C01D92A136B107E1F70E94DF000C9478
:10009000620E0C9400008FEF8EBD0DB407FEFDCFF5
:1000A0008EB508958EBD0DB407FEFDCF8EB50895B3
:1000B000982F969588B18F7C88B9933029F487B1B1
:1000C0008F7C87B980E30BC0923021F43D983D9A34
:1000D00080E205C0913031F43C983C9A80E18093F5
:1000E0007E00089587B1806387B910927E000895DD
:1000F000F59B24C080915E0290915F0220915E0288
:1001000030915F02885F9F4FB0F4205F3F4F98F0BF
:10011000F59880915E0290915F028295880F807EB3
:10012000805E8093310280915E0290915F028770C1
:100130000E94580026C0F59881E008959EB39F71F3
:10014000809100019817C9F4B89B1DC081E087BB5E
:1001500080911F018F5F80931F018A30A0F0F89477
:100160008EB38F71891739F48EB3807D8EBB8EB3B9
:100170008F7180930001789402C0909300011092D7
:100180001F0180E0089580E00895FF920F931F9370
:10019000892B21F400E8FF24FA9403C000E0FF2437
:1001A000F39410E80F0D07BD08BD84E690E00E94AF
:1001B0004E031150B9F71F910F91FF9008952F92A0
:1001C0003F924F925F926F927F928F929F92AF92E7
:1001D000BF92CF92DF92EF92FF920F931F93CF9334
:1001E000DF9314BE80E68AB91BB88EE284B98CE135
:1001F00085B913E017B918B8409887B18C6387B9EF
:1002000088EC90E00E9445031092B0001092B2007A
:1002100087E08093B10080E18EBB1ABC1BBC1093B9
:10022000690081E08DBB789470E1272E7724739468
:10023000812C62E0962E50E8652E42E0442E33EA8F
:10024000332E84E392E00E94CE0C882309F0F8C19B
:100250002EBA1ABC1BBC2AE0522E10921F0177BA8C
:100260000E9478008823E1F380915E0290915F0202
:100270008F5F9F4F09F4E1C1409A20915E02309157
:100280005F0243E0E42FF0E0EF5DFE4FC9016AE05A
:1002900070E00E94250E805D8083C9016AE070E0F5
:1002A0000E94250E9B01415068F785E291E068E6C7
:1002B00070E00E945B0E81E291E00E94680C833046
:1002C00011F413E0A8C1882311F012E0A4C181E267
:1002D00091E06CE070E04DE151E00E94BD0988239F
:1002E00009F0C7C180911D0190911E010C9709F082
:1002F000C6C18091290190912A01A0912B01B09152
:100300002C0187559144A645B54409F0B8C1DD24B8
:1003100081E291E068E070E04DE151E00E94BD09AA
:10032000882309F0A6C180911D0190911E010897B4
:1003300009F0A5C1E0902501F09026010091270168
:10034000109128018091210190912201A091230117
:10035000B09124018C3429E4920723E5A20724E517
:10036000B20709F4C0C08D3469E4960763E5A607B7
:1003700064E5B60778F486362DE6920724E7A207EF
:1003800020E2B207B9F084549944A345B04509F07E
:1003900076C1A9C0843621E6920724E7A20721E6A8
:1003A000B20709F46DC086569146A346B44709F0DA
:1003B00066C199C0C70181709070892B29F008949B
:1003C000E11CF11C011D111DD801C7014097A109B5
:1003D000B10981379105A105B10508F050C181E24D
:1003E00091E0B7014DE151E00E94BD09882309F079
:1003F00040C180911D0190911E01A0E0B0E08E15DA
:100400009F05A007B10709F03AC180912101813011
:1004100009F035C1D090230182E0D81611F4F69A84
:1004200001C0F69880912F01883029F0803109F0C1
:1004300026C1F79A01C0F79884FDDD0C20912501B3
:10044000309126014091270150912801DA01C9011C
:1004500080549F41A040B04081549C49A040B0408E
:1004600008F00DC160E673EE86E190E00E94390E5F
:1004700030E021503040309389002093880048CFED
:10048000DD2009F4FCC080E0E81684E0F80680E096
:10049000080780E0180708F4F2C08D2D90E001975E
:1004A0009C01442737FD4095542FDA01C9018E2164
:1004B0009F21A023B1230097A105B10509F0DFC05A
:1004C00080914A0290914B02A0914C02B0914D0252
:1004D000282339234A235B23211531054105510582
:1004E00009F0CDC01EC0C70181709070892B29F022
:1004F0000894E11CF11C011D111D80914A0290918C
:100500004B02A0914C02B0914D02E80EF91E0A1F59
:100510001B1FC801B7010E94AE07882309F4F8CE5B
:10052000A8C025E0E216F1040105110510F41E2D06
:1005300072C0A0904A02B0904B02C0904C02D09082
:100540004D02409A80918100882391F410923302E9
:10055000109206011092050134BC75BC81E090E058
:100560000E94C500109280005092810040926F005E
:10057000C5019170B401681B790B80E090E04DE1FA
:1005800051E00E94BD09882309F03DC080911D0102
:1005900090911E01A0E0B0E0E81AF90A0A0B1B0BCB
:1005A00061E0E61664E0F60660E0060760E0160724
:1005B00018F0C0E0D4E001C0E70180E090E0BE01A7
:1005C0004DE151E00E94BD0980911D0190911E01F5
:1005D000C817D907C1F40E947800882349F0809198
:1005E0005E0290915F028F5F9F4F11F411E00CC08B
:1005F00080911D0190911E018050944011F010E0F7
:1006000003C0CE01C7CF12E0809133028823E1F707
:1006100067BC68BC4098409880918100882341F075
:100620001092810080E090E00E94C50014BC15BCCF
:10063000113009F412CE10923202123009F00DCEB0
:1006400088EC90E00E944503419A84E690E00E9485
:100650004503419888EC90E00E944503419A84E666
:1006600090E00E944503419888EE93E00E94450384
:10067000E8CD92E0E92EF12C012D112D58CF84E028
:10068000E82EF12C012D112D52CFA895019728F0BD
:10069000E0EAFFE03197F1F7F8CF089572E07A953C
:1006A000F1F70197D9F7A89508958FEF8EBD8DB515
:1006B00087FFFDCF8EB508958EBD8DB587FFFDCF29
:1006C0008EB50895DC01FB0122E032E02E1B3F0BCA
:1006D000241B350B319790F0319750F09FEF9EBD62
:1006E0008DB587FFFDCF8EB59EBD319718F0F8CF41
:1006F0008FEF8EBD8DB587FFFDCF8EB51097B9F00A
:100700004150504061F09FEF9EBD8DB587FFFDCFFA
:100710008EB59EBD8D934150504019F0F6CF8FEFAE
:100720008EBD8DB587FFFDCF8EB58D9348C0F799EF
:100730005695F7994795F6995695F699479560918C
:100740000501A1E2B1E0A60FB11D809133028C3FFB
:10075000E0F7ABDFEE27F79B03C0E82FA6DF80585A
:10076000F82FF69B0BC0A1DF9927F79B03C0982FAA
:100770009CDF8058E90FF81FF795E7950F930091DC
:100780003102002361F0F0581F93E09F912D1F2F3D
:100790001003F0011124E90FF11DF0581F910F9182
:1007A000ED93FD93F894809133028E5F8093330232
:1007B00078946E5F4150504021F66093050175DFDB
:1007C00021503040E1F708958F938FB78F93EF93C7
:1007D000FF9380913302825070F080933302E09156
:1007E0000601FF27EF5DFE4F819187BD819188BD96
:1007F000E152E0930601FF91EF918F918FBF8F91AE
:1008000018958F937F938FB78F9379B177FB85B1CD
:1008100081F985B9F49B73FF1EC08EB38F708395E9
:1008200084FF04C08EB3807F8EBBF59A889474FDDC
:1008300008948AB5881F8ABD8BB5881F8BBDF59932
:1008400004C08EB383958EBB06C08AB580935E02CA
:100850008BB580935F028EB373FB84F98EBB8F914F
:100860008FBF7F918F911895DF92EF92FF920F9338
:100870001F93D82E7A018B0187FF0BC087E740E0DA
:1008800050E060E070E00E9434048230A8F58FE709
:10089000D8222A9A0E9455032A980E9455038D2D2A
:1008A0000E945C03812F9927AA27BB270E945C0323
:1008B000C801AA27BB270E945C03BB27A12F902F4A
:1008C0008F2D0E945C038E2D0E945C0380E4D8165D
:1008D00011F485E906C088E4D81611F487E801C050
:1008E00081E00E945C031AE00E945503809302019C
:1008F00087FF02C01150C1F71F910F91FF90EF9039
:10090000DF900895CF92DF92EF92FF920F931F93A3
:10091000CF93DF936C0179018091600283FD07C062
:1009200039E0440F551F661F771F3A95D1F781E5CF
:100930000E9434048823B9F4C0E3D5E70E9455032C
:1009400080930101809101018F3F11F42197B1F74C
:10095000809101018E3F39F4C601B701A8010E94C0
:10096000620310E001C011E02A9A0E945503812F12
:10097000DF91CF911F910F91FF90EF90DF90CF907B
:100980000895CF92DF92EF92FF920F931F93DF9320
:10099000CF9300D000D0CDB7DEB780E58CBD81E02D
:1009A0008DBD0AE010E00E94550301501040D9F7B8
:1009B0002A9808E512E00E94550301501040D9F72B
:1009C00080E440E050E060E070E00E943404813058
:1009D00009F065C088E44AEA51E060E070E00E94F6
:1009E00034048130D1F56E010894C11CD11C76010C
:1009F0008E010B5F1F4F0E945503F70181937F010A
:100A0000E017F107C1F78B81813009F048C08C8174
:100A10008A3A09F044C008EA11E604C001501040C7
:100A200009F43DC089EE40E050E060E070E40E94CF
:100A30003404882399F74AC00E945503F601819334
:100A40006F01EE15FF05C1F7898186FD03C0E4E063
:100A5000FE2E26C07CE0F72E23C089EE40E050E059
:100A600060E070E00E943404823028F061E4E62EF9
:100A7000FF24F39404C059EEE52E42E0F42E08EA78
:100A800011E603C00150104051F08E2D40E050E0BF
:100A900060E070E00E9434048823A1F722C0FF24A4
:100AA000F09260022A9A0E94550380E0FF2009F428
:100AB00081E00F900F900F900F90CF91DF911F91D9
:100AC0000F91FF90EF90DF90CF9008958AE740E07C
:100AD00050E060E070E00E943404882309F4ACCF59
:100AE000DECF80E540E052E060E070E00E94340438
:100AF0008823A9F6D5CF1F93182F84E690E00E9493
:100B000045035C9A82E390E00E9445035C98115093
:100B1000A1F788EE93E00E9445031F910895CF92BC
:100B2000DF92EF92FF920F931F93CF93DF936C01AD
:100B3000C0910301D0910401FC0111821082248133
:100B4000358146815781213031054105510509F430
:100B50005BC08E819F81A885B985281739074A0710
:100B60005B0708F051C0211531054105510539F4E5
:100B70008881833021F42E853F8548895989F60183
:100B8000208731874287538721153105410551055B
:100B900081F18EEFE82E8FEFF82E8FEF082F8FEF79
:100BA000182FE20EF31E041F151F8E819F81A8854A
:100BB000B9850297A109B109E816F9060A071B07CA
:100BC00028F020E030E040E050E017C02A8130E01B
:100BD00040E050E0C801B7010E94060E9B01AC0145
:100BE0008A899B89AC89BD89280F391F4A1F5B1FE1
:100BF00004C02E853F8548895989F60124873587A9
:100C00004687578780E001C081E0DF91CF911F9137
:100C10000F91FF90EF90DF90CF9008956F927F92A9
:100C20008F929F92AF92BF92CF92DF92EF92FF92FC
:100C30000F931F93DF93CF9300D000D0CDB7DEB7D3
:100C40004B015C01609003017090040182E0881602
:100C50009104A104B10408F4B4C0F3018681978122
:100C6000A085B18588169906AA06BB0608F0A9C01A
:100C70008081823009F45FC0833009F47BC0813009
:100C800009F09FC0C40196958795880D991D9C0118
:100C90003170892F992786956C01EE24FF24F3018A
:100CA0004285538564857585CE010196F1E02F3F1D
:100CB0003F0749F0C40ED51EE61EF71EB701A60178
:100CC00002E010E01EC04C0D5D1D6E1D7F1D2FEF5C
:100CD00031E001E010E00E948204882309F071C035
:100CE000F30142855385648575854F5F5F4F6F4F74
:100CF0007F4F4C0D5D1D6E1D7F1DCE01029620E0C5
:100D000030E00E948204882309F05BC069817A8107
:100D1000C40181709070892B39F0A4E076956795B5
:100D2000AA95E1F79B0123C09B0140E050E03F7092
:100D3000407050704AC077276B2D5A2D492DF30112
:100D400082859385A485B585480F591F6A1F7B1F2F
:100D500094013070220F331FCE01019602E010E0A3
:100D60000E948204882369F589819A819C0140E070
:100D700050E02BC0B501A40127E076956795579503
:100D800047952A95D1F7F30182859385A485B5858A
:100D9000480F591F6A1F7B1F94012F773070220F55
:100DA000331F220F331FCE01019604E010E00E9492
:100DB0008204882331F429813A814B815C815F7000
:100DC00004C021E030E040E050E0B901CA010F90DA
:100DD0000F900F900F90CF91DF911F910F91FF9087
:100DE000EF90DF90CF90BF90AF909F908F907F90CB
:100DF0006F900895AF92BF92CF92DF92EF92FF92E1
:100E00000F931F93CF93DF935C01C0910301D091A7
:100E10000401FC01C080D1800894C11CD11CC11404
:100E2000D10409F48FC02485358546855785211561
:100E300031054105510509F485C0C6018F709070D8
:100E4000892B09F07AC02F5F3F4F4F4F5F4F2487A8
:100E5000358746875787408551856285738541155B
:100E600051056105710539F48C819D81C816D9063B
:100E700008F463C067C08A8190E001979601E4E0BE
:100E800036952795EA95E1F782239323892B09F07C
:100E900054C0CB01BA010E940E069B01AC01623026
:100EA00071058105910510F481E04DC08E819F810F
:100EB000A885B985281739074A075B0708F042C09B
:100EC000F5012087318742875387C0910301D09174
:100ED00004018EEFE82E8FEFF82E8FEF082F8FEFA3
:100EE000182FE20EF31E041F151F8E819F81A88507
:100EF000B9850297A109B109E816F9060A071B0787
:100F000028F020E030E040E050E012C02A8130E0DC
:100F100040E050E0C801B7010E94060E9B01AC0101
:100F20008A899B89AC89BD89280F391F4A1F5B1F9D
:100F3000F5012487358746875787F501D182C0821E
:100F400080E001C083E0DF91CF911F910F91FF906E
:100F5000EF90DF90CF90BF90AF9008952F923F9287
:100F60004F925F926F927F928F929F92AF92BF92B9
:100F7000CF92DF92EF92FF920F931F93CF93DF9365
:100F8000E82FC0910301D0910401209711F486E06D
:100F900002C1898180FD02C085E0FDC0EA8CFB8C26
:100FA0000C8D1D8D4E2F592FCB01DA013C014D01C7
:100FB000E614F7040805190510F437014801EE8816
:100FC000FF88088D198D1E8A1F8A188E198E61144C
:100FD00071048104910409F4DAC08A81A82EBB242B
:100FE000CC24DD24B9E0AA0CBB1CCC1CDD1CBA95BA
:100FF000D1F7E114F10401051105B1F11701280140
:1010000008942108310841085108C401B301615016
:10101000704080409040A60195010E94390E7901F0
:101020008A01C201B101A60195010E94390EE216A2
:10103000F30604071507C0F088279927DC018A19F1
:101040009B09AC09BD0982219321A421B5218E8B76
:101050009F8BA88FB98F681A790A8A0A9B0A2AA1DE
:101060003BA14CA15DA133C02E8D3F8D48A159A15C
:101070002AA33BA34CA35DA32AC0CA01B9010E94C5
:101080000E069B01AC01623071058105910508F4E3
:1010900080C08E819F81A885B985281739074A07A6
:1010A0005B0708F076C02AA33BA34CA35DA38E89FF
:1010B0009F89A88DB98D8A0D9B1DAC1DBD1D8E8B82
:1010C0009F8BA88FB98F6A187B088C089D08A6147F
:1010D000B704C804D90488F2EE88FF88088D198DFA
:1010E000E60CF71C081D191DEE8AFF8A088F198F60
:1010F0008090030190900401AEEFAA2EAFEFBA2EBC
:10110000AFEFCA2EAFEFDA2EA20EB31EC41ED51E4D
:10111000F40186819781A085B1850297A109B10963
:10112000A816B906CA06DB06A0F5228130E040E029
:1011300050E0C601B5010E94060E9B01AC01F4010E
:1011400082899389A489B589280F391F4A1F5B1F9B
:101150002115310541055105E1F0F9E01695079596
:10116000F794E794FA95D1F78A8190E00197AA273E
:1011700097FDA095BA2FE822F9220A231B232E0DF2
:101180003F1D401F511F2EA33FA348A759A780E032
:1011900002C0198281E0DF91CF911F910F91FF90E2
:1011A000EF90DF90CF90BF90AF909F908F907F9007
:1011B0006F905F904F903F902F900895AF92BF92A5
:1011C000CF92DF92EF92FF920F931F93DF93CF9313
:1011D000CDB7DEB7AC970FB6F894DEBF0FBECDBF6C
:1011E0007C016B018091030190910401892B11F422
:1011F00086E0B0C0CE010196D70113969C938E93E2
:1012000012976115710539F083E00DE0A02EB12C25
:10121000AC0EBD1E28C0C7010E948F059BC0F70100
:10122000208131812F70307015E0220F331F1A9505
:10123000E1F7C50100E210E00E948204882311F06A
:1012400081E01FC09D85992309F495C0888D953E46
:1012500029F09E3219F08F7383FF1DC0C7010E94D1
:10126000FA06882371F4D7011C964D915D916D911A
:101270007C911F97411551056105710581F6882301
:1012800051F0F7011486158616861786833019F0FB
:10129000882309F05FC09601275F3F4FF7018485DF
:1012A0009585A685B7850097A105B10509F443C0CA
:1012B000FE013D96AE014B5E5F4F8081803251F062
:1012C000853009F485EED9018D939D013196E4179F
:1012D000F50799F78D89803299F08EE2F9018193B3
:1012E0009F01FE017596AE01485E5F4F808180329E
:1012F00039F0D9018D939D013196E417F507B1F7C7
:10130000888DF6018087FE013D96448D558D668D52
:10131000778DD6014D935D936D937C931397808D5C
:10132000918D15969C938E9314978689978917961D
:101330009C938E931697F9011082C7010E94FA06BA
:10134000833041F4D7011C961D921D921D921C9270
:101350001F9780E0AC960FB6F894DEBF0FBECDBFEE
:10136000CF91DF911F910F91FF90EF90DF90CF9081
:10137000BF90AF90089583E084CF4F925F926F92B9
:101380007F928F929F92AF92BF92CF92DF92EF9215
:10139000FF920F931F93CF93DF933C016B014A01A0
:1013A000C0910301D0910401FA01118210822097AB
:1013B00011F486E0CAC0898180FD02C085E0C5C005
:1013C0002A8D3B8D4C8D5D8D8E899F89A88DB98D21
:1013D000281B390B4A0B5B0BCB01A0E0B0E02817B0
:1013E00039074A075B0708F469015301412C72E091
:1013F000572EA3C02E893F89488D598DDA01C90126
:101400009170A070B0700097A105B10509F060C09F
:10141000DA01C90169E0B695A795979587956A9510
:10142000D1F7FA80FA94F822D1F42115310541055B
:10143000510529F46E8D7F8D88A199A106C06AA1FE
:101440007BA18CA19DA10E940E06623071058105D1
:10145000910508F478C06AA37BA38CA39DA3009197
:101460000301109104012AA13BA14CA15DA12250CE
:10147000304040405040F80186819781A085B18579
:101480000297A109B109281739074A075B0708F035
:101490005AC0628170E080E090E00E94060E9B01DD
:1014A000AC01F80182899389A489B589280F391F75
:1014B0004A1F5B1F211531054105510509F443C041
:1014C0002F0D311D411D511D2EA33FA348A759A724
:1014D0002E893F893170C201821B930B76018C15D6
:1014E0009D0508F47C016114710419F480E090E01A
:1014F00001C0C5014EA15FA168A579A587010E9421
:101500008204882301F5C701A0E0B0E02E893F895D
:10151000488D598D280F391F4A1F5B1F2E8B3F8B1B
:10152000488F598FAE0CBF1CCE18DF08F4018081A4
:1015300091818E0D9F1D91838083C114D10409F088
:1015400059CF80E002C0198281E0DF91CF911F91D5
:101550000F91FF90EF90DF90CF90BF90AF909F9052
:101560008F907F906F905F904F900895AF92BF9251
:10157000CF92DF92EF92FF920F931F93CF93DF935F
:10158000B82EA92E6A017B012EEF31E002E010E0B7
:101590000E948204882311F023E033C0CB2DDA2D82
:1015A0008881998185559A4A11F022E02AC08B2DB5
:1015B0009A2DB701A60126E330E002E010E00E9478
:1015C0008204882339F4888199818654914411F4E6
:1015D00020E017C08B2D9A2DB701A60122E530E03F
:1015E00002E010E00E948204882311F021E009C08B
:1015F00020E0888199818654914409F421E081E0BA
:101600002827822FDF91CF911F910F91FF90EF90AC
:10161000DF90CF90BF90AF9008956F927F928F929E
:101620009F92AF92BF92CF92DF92EF92FF920F9371
:101630001F93CF93DF93EC016B017A0103C00894F1
:10164000E11CF11CF70180818032C9F38F3219F45B
:101650000894E11CF11C1C821D821E821F82F7016E
:101660008081813238F4CE010E948F05B82EF601B8
:101670001082C2C020E2622E772473949BE0892EF0
:10168000912C8C0C9D1CAA81BB81FD018BE090E00C
:1016900001C0619201972FEF8F3F9207D1F720E0B1
:1016A000AA2438E002C028E03BE0F701EA0DF11D72
:1016B0009081A3949132B0F09F32A1F09E3211F04C
:1016C000231728F0383071F49E3269F30BC0892F4C
:1016D00081568A3108F49052FD01E20FF11D90838A
:1016E0002F5FE3CF1B961C921B97913210F41B9631
:1016F0007C92CE010E948F05B82E882309F056C037
:1017000028813981C90187709070892BA1F44C859B
:101710005D856E857F852870307085E0220F331FD0
:101720008A95E1F781E692E000E011E00E948204F0
:10173000882309F074C0E881F981E770F07005E052
:10174000EE0FFF1F0A95E1F7D601EF59FD4F80E23A
:1017500001900D928150E1F7F6018081882309F410
:101760005BC0F401808183FD14C0D6018A819B8116
:101770009C01F9012BE030E0215030408FEF2F3FEA
:10178000380771F09C918081981719F41196319661
:10179000F3CFCE010E94FA06882309F4B1CF40C0EE
:1017A000EA81FB818385882351F026C0E3E0BE16E1
:1017B00019F5EA81FB8183858823E1F01DC0F401DE
:1017C000808184FF17C0EA0CF11CF6018489958999
:1017D000A0E0B0E0DC0199278827228D338D40E01E
:1017E00050E0822B932BA42BB52B8C839D83AE834F
:1017F000BF8349CFF4E0BF2E8B2DDF91CF911F9196
:101800000F91FF90EF90DF90CF90BF90AF909F909F
:101810008F907F906F900895E3E0BE2ECACF81E055
:10182000B82EC4CFEF92FF920F931F93DF93CF9305
:10183000CDB7DEB7AC970FB6F894DEBF0FBECDBF05
:101840008C01AB018091030190910401892B11F46B
:1018500086E031C0CE010196F801938382836DE06A
:10186000E62EF12CEC0EFD1EC801B7010E940D0BF7
:101870008823F1F48D858823C1F0888D84FF1AC0F8
:10188000F70184899589A0E0B0E0DC0199278827D9
:10189000228D338D40E050E0822B932BA42BB52B6F
:1018A000F80184839583A683B783C8010E948F05BE
:1018B000833009F484E0AC960FB6F894DEBF0FBE17
:1018C000CDBFCF91DF911F910F91FF90EF900895C1
:1018D000EF92FF920F931F93DF93CF93CDB7DEB7B5
:1018E000EC970FB6F894DEBF0FBECDBFAC010091F0
:1018F0000301109104010115110511F466E040C0C7
:10190000F8011182CE010196988B8F87EDE1EE2EC2
:10191000F12CEC0EFD1ECE010D96B7010E940D0BB1
:10192000682F882369F58D8D882349F188A584FD6A
:1019300026C0F70184899589A0E0B0E0DC019927F1
:101940008827228D338D40E050E0822B932BA42BEF
:10195000B52BF801868F978FA0A3B1A3F701848DD3
:10196000958DA68DB78DF801828F938FA48FB58F3B
:10197000168A178A108E118E81E0818301C063E080
:10198000862FEC960FB6F894DEBF0FBECDBFCF9179
:10199000DF911F910F91FF90EF9008956F927F92CA
:1019A0008F929F92AF92BF92CF92DF92EF92FF926F
:1019B0000F931F93DF93CF93CDB7DEB7A4970FB6E6
:1019C000F894DEBF0FBECDBF5C01109204011092EF
:1019D0000301009709F4ECC00E94C10480FF02C01B
:1019E00082E0EBC04E010894811C911CC40140E0D0
:1019F00050E060E070E00E94B60A813021F0CC2413
:101A0000DD2476011BC0C40140E050E060E070E0DE
:101A10002EEB31E000E110E00E948204882309F0FF
:101A2000C9C08D81882309F4C7C0C984DA84EB84D6
:101A3000FC84C401B701A6010E94B60A833009F4F0
:101A4000B9C0882309F0B8C0CE010196B701A6013C
:101A50002DE030E004E210E00E948204882309F0C7
:101A6000A9C08A859B85BC0180E090E06115710565
:101A70008105910521F4688D798D8A8D9B8D2C814E
:101A800030E040E050E00E94060E3B014C018A81AC
:101A90009B81A0E0B0E0C80ED91EEA1EFB1EF50136
:101AA000C286D386E486F586898182832D813E8134
:101AB000358324838F8198857C0100E010E0E11458
:101AC000F1040105110521F4EC88FD880E891F89B8
:101AD0008A819B81A0E0B0E0E81AF90A0A0B1B0B8F
:101AE000E618F70808091909B4E036952795BA955C
:101AF000E1F7C901A0E0B0E0E81AF90A0A0B1B0BF4
:101B0000F501228130E040E050E0C801B7010E94B9
:101B1000390E2E5F3F4F4F4F5F4FF50126833783BE
:101B200040875187273FFFE03F07F0E04F07F0E095
:101B30005F0710F481E001C082E0275F3F4F404023
:101B4000504008F083E0F5018083833029F488A1B8
:101B500099A1AAA1BBA109C0F50182859385A4859D
:101B6000B585860D971DA81DB91D86879787A08B03
:101B7000B18BF50184819581A4E096958795AA950E
:101B8000E1F7A0E0B0E02285338544855585820FDA
:101B9000931FA41FB51F860D971DA81DB91D828B0D
:101BA000938BA48BB58B1182B0920401A092030198
:101BB00080E003C081E001C087E0A4960FB6F894EE
:101BC000DEBF0FBECDBFCF91DF911F910F91FF9070
:101BD000EF90DF90CF90BF90AF909F908F907F90CD
:101BE0006F9008951F93182F84E690E00E9445039C
:101BF0005C9A82E390E00E9445035C981150A1F743
:101C000088EE93E00E9445031F910895629FD001E2
:101C1000739FF001829FE00DF11D649FE00DF11DA7
:101C2000929FF00D839FF00D749FF00D659FF00D56
:101C30009927729FB00DE11DF91F639FB00DE11D43
:101C4000F91FBD01CF0111240895AA1BBB1B51E14F
:101C500007C0AA1FBB1FA617B70710F0A61BB70B1C
:101C6000881F991F5A95A9F780959095BC01CD01C1
:101C70000895A1E21A2EAA1BBB1BFD010DC0AA1FCD
:101C8000BB1FEE1FFF1FA217B307E407F50720F0E5
:101C9000A21BB30BE40BF50B661F771F881F991F60
:101CA0001A9469F760957095809590959B01AC01A9
:101CB000BD01CF010895FB01DC0105900D920020CC
:081CC000E1F70895F894FFCF4D
:00000001FF
