:100000000C9437000C94C5010C9449000C944900E1
:100010000C9449000C9449000C9449000C9449003C
:100020000C9449000C9449000C9449000C94A801CC
:100030000C9449000C9449000C9449000C9449001C
:100040000C9449000C9449000C9449000C9449000C
:100050000C94F2000C9449000C9449000C94490053
:100060000C9449000C9449002E574156000011246D
:100070001FBECFEFD8E0DEBFCDBF13E0A0E0B1E000
:1000800001C01D92A236B107E1F70E94DC0A0C9470
:10009000560D0C9400008EBD0DB407FEFDCF8EB53D
:1000A000089540913202489F9001499F300D1124DC
:1000B000C9010895869598B19F7C98B9833029F439
:1000C00087B18F7C87B980E30BC0823021F43D98E3
:1000D0003D9A80E205C0813031F43C983C9A80E141
:1000E00080937E00089587B1806387B910927E0067
:1000F0000895CF938091C00087FF18C0C091C600BB
:10010000C03291F480910701803371F48091C10075
:1001100088608093C100F89414BE8FEF98E09EBF72
:100120008DBFE0E0FEE70995C0930701CF910895E8
:10013000F59B23C080915F029091600220915F0245
:1001400030916002F598203F3F4FA8F0883F9F4FC5
:1001500090F480915F02909160028295880F807E7A
:10016000805E8093320280915F029091600287707E
:100170000E945A0027C081E008950E9479008EB342
:100180008F7190910001891319C0B89B1BC091E039
:1001900097BB909120019F5F909320019A3090F03F
:1001A000F8949EB39F71981307C08EB3807D8EBB69
:1001B0008EB38F7180930001789402C08093000108
:1001C0001092200180E00895E1ECF0E090819860C9
:1001D00090838093C60082E48093C0008081806415
:1001E000808308951F920F920FB60F9211248F9360
:1001F000EF93FF9351985998E1ECF0E08081877B71
:100200008083FF91EF918F910F900FBE0F901F9001
:100210001895A895019728F0E0EAFFE03197F1F7EB
:10022000F8CF089572E07A95F1F70197D9F7A8957C
:1002300008958FEF8EBD8DB587FFFDCF8EB50895E4
:100240008EBD8DB587FFFDCF8EB50895DC01FB0116
:1002500022E032E02E1B3F0B241B350B319790F030
:10026000319750F09FEF9EBD8DB587FFFDCF8EB5C6
:100270009EBD319718F0F8CF8FEF8EBD8DB587FFFB
:10028000FDCF8EB51097B9F04150504061F09FEF0F
:100290009EBD8DB587FFFDCF8EB59EBD8D93415020
:1002A000504019F0F6CF8FEF8EBD8DB587FFFDCF93
:1002B0008EB58D9348C0F7995695F7994795F6995D
:1002C0005695F699479560910501A2E2B1E0A60F17
:1002D000B11D809134028C3FE0F7ABDFEE27F79B36
:1002E00003C0E82FA6DF8058F82FF69B0BC0A1DFD4
:1002F0009927F79B03C0982F9CDF8058E90FF81FC0
:10030000F795E7950F9300913202002361F0F058C2
:100310001F93E09F912D1F2F1003F0011124E90F6F
:10032000F11DF0581F910F91ED93FD93F89480917A
:1003300034028E5F8093340278946E5F4150504057
:1003400021F66093050175DF21503040E1F70895F3
:100350008F938FB78F93EF93FF93809134028250E6
:1003600070F080933402E0910601FF27EE5DFE4FAE
:10037000819187BD819188BDE252E0930601FF9192
:10038000EF918F918FBF8F9118958F937F938FB738
:100390008F9379B177FB85B181F985B9F49B73FFB0
:1003A0001EC08EB38F70839584FF04C08EB3807F90
:1003B0008EBBF59A889474FD08948AB5881F8ABD0F
:1003C0008BB5881F8BBDF59904C08EB383958EBB0A
:1003D00006C08AB580935F028BB5809360028EB3AE
:1003E00073FB84F98EBB8F918FBF7F918F9118958E
:1003F0008FEF8EBD0DB407FEFDCF8EB50895FF9231
:100400000F931F93CF93DF93C82FD42F152F062F51
:10041000F72E87FF09C040E050E0BA0187E70E944D
:10042000FF01823050F5CF772A9A0E94F8012A986E
:100430000E94F8018C2F0E9420018F2D0E94200124
:10044000802F0E942001812F0E9420018D2F0E9469
:100450002001C03421F0C83421F081E003C085E9D7
:1004600001C087E80E942001CAE00E94F801809341
:10047000010187FF02C0C150C1F7DF91CF911F91E9
:100480000F91FF900895CF92DF92EF92FF920F931A
:100490001F93CF93DF9300D000D01F92CDB7DEB76C
:1004A00080E58CBD81E08DBD0AE010E00E94F8017E
:1004B00001501109D9F72A9808E512E00E94F801C5
:1004C00001501109D9F740E050E0BA0180E40E94E0
:1004D000FF01813009F066C04AEA51E060E070E057
:1004E00088E40E94FF018130D1F58E010F5F1F4F1C
:1004F0006E0185E0C80ED11C78010E94F801F70159
:1005000081937F01EC15FD05C1F78B81813009F0E6
:1005100049C08C818A3A09F045C005C0F1E0EF1A64
:10052000F10829F43FC038EAE32E31E6F32E40E02B
:1005300050E060E070E489EE0E94FF018111EECF8F
:100540003CC00E94F801F80181938F01EC15FD0574
:10055000C1F7898186FF23C02CE0F22E24C040E041
:1005600050E0BA0189EE0E94FF01823020F492E04F
:10057000F92E99EE03C0FF24F39491E408EA11E602
:1005800003C00150110971F040E050E0BA01892F19
:100590009D830E94FF019D818111F3CF18C084E0EB
:1005A000F82E01C0F12CF09261022A9A0E94F80103
:1005B00081E0FF20B1F080E014C040E050E0BA01DB
:1005C0008AE70E94FF01882309F4BBCFEBCF40E00C
:1005D00052E060E070E080E50E94FF018111E2CF0F
:1005E000E2CF0F900F900F900F900F90DF91CF916F
:1005F0001F910F91FF90EF90DF90CF900895CF92D1
:10060000DF92EF92FF920F931F93CF93DF93EC0152
:1006100079018091610283FD07C0E9E0440F551F15
:10062000661F771FEA95D1F781E50E94FF018823B5
:1006300011F0C1E01AC040E3C42E45E7D42E0E9459
:10064000F80180930201809102018F3F21F481E043
:10065000C81AD108A1F7809102018E3F51F7A80175
:10066000B701CE010E942601C0E02A9A0E94F8013B
:100670008C2FDF91CF911F910F91FF90EF90DF9022
:10068000CF9008950F931F939B01AC01E09103015C
:10069000F091040122503109410951098681978165
:1006A000A085B1850297A109B109281739074A0722
:1006B0005B0778F4A281B0E00E94020D8B019C01DF
:1006C00082899389A489B589080F191F2A1F3B1FA6
:1006D00003C000E010E09801B801C9011F910F911B
:1006E00008950F931F93CF93DF93EC01E0910301E3
:1006F000F0910401198218826C817D818E819F8125
:10070000613071058105910559F1068117812085B8
:100710003185601771078207930710F56115710520
:100720008105910539F42081233021F46685778590
:1007300080899189688779878A879B876115710588
:100740008105910519F00E94420304C066857785F2
:10075000808991896C877D878E879F8780E001C023
:1007600081E0DF91CF911F910F9108954F925F9299
:100770006F927F92AF92BF92CF92DF92EF92FF92F1
:100780000F931F93CF93DF9300D000D0CDB7DEB788
:100790006B017C01A0900301B090040162307105EF
:1007A0008105910508F4AEC0F50186819781A08589
:1007B000B185C816D906EA06FB0608F0A3C08081F9
:1007C000823009F454C0833009F471C0813009F0DB
:1007D00099C02601569447944C0C5D1C92013170CF
:1007E000452C55244694612C712C82859385A485D3
:1007F000B585B301A201480F591F6A1F7B1F2F3F08
:10080000F1E03F0751F002E010E0CE01019620C078
:1008100009811A81C0FC21C026C001E010E02FEF41
:1008200031E0CE0101960E94FF0281116BC0F501FB
:1008300042855385648575854F5F5F4F6F4F7F4F4E
:10084000440D551D661D771D20E030E0CE01029657
:100850000E94FF028823E1F255C064E016950795D7
:100860006A95E1F701C01F7020E030E04FC0D7016A
:10087000C6019927AA27BB279C01220F331F772780
:100880006F2D5E2D4D2DF50182859385A485B5854F
:10089000480F591F6A1F7B1F02E010E0CE0101962E
:1008A0000E94FF0281112EC009811A81DDCFD7017C
:1008B000C6018F779927AA27BB279C01220F331FD8
:1008C000220F331FB701A60197E0769567955795DC
:1008D00047959A95D1F7F50182859385A485B585CD
:1008E000480F591F6A1F7B1F04E010E0CE010196DC
:1008F0000E94FF02811106C009811A812B813C816F
:100900003F7004C001E010E020E030E0B801C90110
:100910000F900F900F900F90DF91CF911F910F913B
:10092000FF90EF90DF90CF90BF90AF907F906F904F
:100930005F904F900895CF92DF92EF92FF920F93C6
:100940001F93CF93DF93EC01E0900301F09004013B
:10095000088119810F5F1F4F11F483E054C08C850B
:100960009D85AE85BF850097A105B105B1F39801BE
:100970002F703327232B09F041C00196A11DB11D13
:100980008C879D87AE87BF87688579858A859B859B
:10099000F701611571058105910531F48481958117
:1009A00008171907D0F62AC0228130E021503109FA
:1009B000A801B4E056954795BA95E1F7242335236D
:1009C000232BE1F40E94B603623071058105910585
:1009D000C8F0F701C680D780E084F1846C157D05EE
:1009E0008E059F0508F0B9CF688779878A879B872E
:1009F0000E9442036C877D878E879F8719830883B7
:100A000080E001C081E0DF91CF911F910F91FF90B5
:100A1000EF90DF90CF900895CF92DF92EF92FF9208
:100A20000F931F93CF93DF93EC016A017B0102E0E8
:100A300010E02EEF31E00E94FF02811127C0888173
:100A4000998185359A4A21F526E330E0B701A60160
:100A5000CE010E94FF02811105C0888199818634F0
:100A60009144C1F002E010E022E530E0B701A601B8
:100A7000CE010E94FF02811107C081E028813981E7
:100A80002634314441F406C081E005C083E003C050
:100A900082E001C080E0DF91CF911F910F91FF9024
:100AA000EF90DF90CF900895AF92BF92CF92DF92F8
:100AB000EF92FF920F931F93CF93DF93EC016B01A3
:100AC000CA017C01FC01208101962032D1F32F3232
:100AD00009F47C011C821D821E821F82F701808125
:100AE000813238F4CE010E947103A82EF6011082E3
:100AF000B6C090E2B92EEA81FB81CF010B96DF01EF
:100B000001C0BD92A817B907E1F790E020E038E0F6
:100B1000D701A20FB11D8C912F5F813290F08F32DF
:100B200081F08E3209F48DC0931758F4482F415646
:100B30004A3108F48052DF01A90FB11D8C939F5FE9
:100B4000E7CFE20EF11C91E0813208F090E093874C
:100B5000CE010E947103A82E811179C028813981AC
:100B6000C90187709927892BB1F0E881F981E77075
:100B7000FF2785E0EE0FFF1F8A95E1F7EE59FD4F45
:100B8000D6018B2D01900D928A95E1F7F6018081B7
:100B9000811115C030C02870332705E0220F331FA4
:100BA0000A95E1F74C855D856E857F8500E011E053
:100BB00082E692E00E94FF0281113DC0D6CFF6018D
:100BC000438543FD10C00A811B81C6019801255F42
:100BD0003F4FD801A217B307F1F1FC016191CF019A
:100BE0005D916517B9F3CE010E949B04882309F437
:100BF000B5CFA82E2CC0EA81FB8183858823F1F034
:100C000017C044FF1BC0F6014489558960E070E0BD
:100C1000BA0155274427828D938DA0E0B0E0482B80
:100C2000592B6A2B7B2B4C835D836E837F8363CF31
:100C3000D3E0AD2E14C0AA24A39411C0C4E0AC2EFE
:100C40000EC0383009F07DCF98E03BE061CFF3E093
:100C5000AF1205C0D0CFF8018385882391F28A2D89
:100C6000DF91CF911F910F91FF90EF90DF90CF9088
:100C7000BF90AF900895CF93C82F84E690E00E9474
:100C800009015C9A82E390E00E9409015C98C150DE
:100C9000A1F788EE93E0CF910C9409014F925F92F7
:100CA0006F927F929F92AF92BF92CF92DF92EF921C
:100CB000FF920F931F93CF93DF93CDB7DEB7A89723
:100CC0000FB6F894DEBF0FBECDBF5C0110920401D9
:100CD00010920301009709F4DEC00E94430280FDD8
:100CE000DCC040E050E0BA01CE0101960E940C0544
:100CF0008130F9F400E110E02EEB31E040E050E00B
:100D0000BA01CE0101960E94FF02882311F081E012
:100D1000C5C08D81811102C087E0C0C049845A845A
:100D20006B847C84B301A201CE0101960E940C0564
:100D300003C0412C512C3201833049F38111ECCF97
:100D400004E210E02DE030E0B301A201CE010196F3
:100D50000E94FF028111DBCF2A853B8540E050E0F5
:100D6000211531054105510521F4288D398D4A8D14
:100D70005B8DAC81B0E00E94020D6B017C018A8129
:100D80009B81A0E0B0E0480E591E6A1E7B1EF50153
:100D90004286538664867586998092822D813E8133
:100DA000358324836F817885AB0160E070E0411565
:100DB00051056105710521F44C895D896E897F8932
:100DC000F90124E0F695E7952A95E1F78F0120E0F7
:100DD00030E00DA31EA32FA338A78A019B01081B97
:100DE000190B2A0B3B0BC901B8016C197D098E093F
:100DF0009F090DA11EA12FA138A5601B710B820BAD
:100E0000930B292D30E040E050E00E94210D2E5F31
:100E10003F4F4F4F5F4FD50116962D933D934D9306
:100E20005C931997273FBFE03B074105510538F018
:100E3000273F3F4F4105510520F482E003C081E088
:100E400001C083E0D5018C93833029F488A199A156
:100E5000AAA1BBA106C0D701C601840D951DA61D80
:100E6000B71DF50186879787A08BB18B0DA11EA1B9
:100E70002FA138A5400E511E621E731E4C0C5D1C26
:100E80006E1C7F1C428A538A648A758A1182B092D2
:100E90000401A092030180E001C082E0A8960FB691
:100EA000F894DEBF0FBECDBFDF91CF911F910F91A0
:100EB000FF90EF90DF90CF90BF90AF909F907F908A
:100EC0006F905F904F900895CF92DF92EF92FF92D4
:100ED0000F931F93CF93DF93CDB7DEB7EC970FB689
:100EE000F894DEBF0FBECDBF009103011091040145
:100EF00001151105D1F1F80111829E012F5C3F4FC0
:100F00003CA32BA3AC01BE016F5F7F4FCE01819646
:100F10000E94540581112CC09981992341F19C852F
:100F200094FD25C04D895E8960E070E0BA015527C7
:100F30004427CB8CDC8CE12CF12C4C295D296E29CB
:100F40007F29F801468F578F60A371A34D8D5E8D69
:100F50006F8D78A1428F538F648F758F168A178A91
:100F6000108E118E91E0918303C086E001C083E072
:100F7000EC960FB6F894DEBF0FBECDBFDF91CF91D8
:100F80001F910F91FF90EF90DF90CF9008954F92B7
:100F90005F926F927F928F929F92AF92BF92CF9209
:100FA000DF92EF92FF920F931F93CF93DF934C0149
:100FB0007B015A01C0910301D0910401FA01118211
:100FC0001082209709F4A7C0898180FFA6C08A8D6E
:100FD0009B8DAC8DBD8D4E895F89688D798D841B0D
:100FE000950BA60BB70BA70160E070E0841795077F
:100FF000A607B70708F47C013401412CF2E05F2E0C
:1010000081C08E899F89A88DB98DAC01BD015170B9
:1010100066277727452B462B472BE1F5AC01BD0111
:10102000E9E07695679557954795EA95D1F7DA8087
:10103000DA94D422C9F4892B8A2B8B2B29F46E8D58
:101040007F8D88A199A106C06AA17BA18CA19DA1D9
:101050000E94B603623071058105910508F458C0FD
:101060006AA37BA38CA39DA36AA17BA18CA19DA154
:101070000E944203611571058105910509F448C07C
:10108000DC01CB018D0D911DA11DB11D8EA39FA370
:10109000A8A7B9A78E899F89A88DB98D9170AA2715
:1010A000BB279201281B390B67012E153F0508F459
:1010B00069014EA15FA168A579A58114910419F475
:1010C000E0E0F0E001C0F30186019C01CF010E9445
:1010D000FF0281111DC08E899F89A88DB98D8C0D4D
:1010E0009D1DA11DB11D8E8B9F8BA88FB98F6C0C80
:1010F0007D1CEC18FD08F501808191818C0D9D1DF2
:1011000091838083E114F10409F07BCF80E006C075
:10111000198281E003C086E001C085E0DF91CF91B4
:101120001F910F91FF90EF90DF90CF90BF90AF9005
:101130009F908F907F906F905F904F9008952F9227
:101140003F924F925F926F927F928F929F92AF9257
:10115000BF92CF92DF92EF92FF920F931F93CF93A4
:10116000DF9300D000D0CDB7DEB79B012090030104
:10117000309004012114310409F4E4C0D101119626
:101180004C91119740FFE0C05A964D915D916D9141
:101190007C915D9769017C014C155D056E057F05AD
:1011A00010F46A017B01F10146885788608C718CCC
:1011B000168A178A108E118EC114D104E104F1042D
:1011C00009F4C4C08280912CA12CB12CB9E0880C08
:1011D000991CAA1CBB1CBA95D1F741145104610497
:1011E0007104D9F1B1E04B1A510861087108C701C7
:1011F000B6016150710981099109A50194010E940C
:10120000210D29833A834B835C83C301B201A5017D
:1012100094010E94210D89819A81AB81BC81821742
:101220009307A407B507C8F088279927DC01881918
:101230009909AA09BB0984219521A621B721F101A9
:10124000868B978BA08FB18FC81AD90AEA0AFB0A3E
:1012500062A173A184A195A139C0D1015E966D915F
:101260007D918D919C919197F10162A373A384A3C9
:1012700095A32CC00E94B6036230710581059105CB
:1012800008F45CC0D10116960D911D912D913C91F1
:101290001997601771078207930708F04FC0F10193
:1012A00062A373A384A395A306891789208D318D2A
:1012B000080D191D2A1D3B1D56960D931D932D9348
:1012C0003C935997C818D908EA08FB088C149D0468
:1012D000AE04BF0478F2F10186889788A08CB18CA7
:1012E0008C0C9D1CAE1CBF1C868A978AA08EB18E6A
:1012F0000E9442036115710581059105F9F07501A0
:101300006401A9E0F694E794D794C794AA95D1F71D
:10131000F101028110E001501109222717FD2095EB
:10132000322FC022D122E222F322C60ED71EE81E9F
:10133000F91EC6A2D7A2E0A6F1A608C0F10111824B
:1013400081E005C086E003C085E001C080E00F9029
:101350000F900F900F90DF91CF911F910F91FF9001
:10136000EF90DF90CF90BF90AF909F908F907F9045
:101370006F905F904F903F902F900895EF92FF9263
:101380000F931F93CF93DF93CDB7DEB7AC970FB614
:10139000F894DEBF0FBECDBF7C01AB01809103018D
:1013A00090910401892B59F1CE018196F701938325
:1013B0008283BE016F5F7F4FC7010E945405811178
:1013C0001BC089818823F9F08C8584FF1AC04D8960
:1013D0005E8960E070E0BA01552744270B8D1C8DB3
:1013E00020E030E0402B512B622B732BF70144831C
:1013F00055836683778307C0833019F008C086E081
:1014000006C084E004C0C7010E947103F5CFAC960A
:101410000FB6F894DEBF0FBECDBFDF91CF911F9105
:101420000F91FF90EF900895CF92DF92EF92FF928D
:101430000F931F93CF93DF93CDB7DEB7AC970FB663
:10144000F894DEBF0FBECDBF7C016B01809103011C
:1014500090910401892B09F49AC0CE018196F7017D
:10146000938382836115710539F5C7010E94710369
:1014700094C0F701208131812F70332705E0220FBE
:10148000331F0A95E1F700E210E0CE0101960E94B9
:10149000FF0281117EC08981882309F47CC09C856C
:1014A000853E21F08E3211F093FF1CC0C7010E94CF
:1014B0009B04882311F00DC083E0F7014485558516
:1014C00066857785411551056105710591F688237B
:1014D00049F0F7011486158616861786833011F0B9
:1014E00081115BC09601275F3F4FF7018485958589
:1014F000A685B785892B8A2B8B2BD9F1DE01119616
:10150000F901CE0109969F014D91403241F04530DD
:1015100009F445EE41939F01A817B907A1F7898502
:101520008032A1F09EE2908381839F012E5F3F4F26
:101530008A85803259F082839F012D5F3F4F8B85D2
:10154000803221F083839F012C5F3F4F8C85F60111
:1015500080878D8D9E8DAF8DB8A180839183A2836E
:10156000B383898D9A8D958384838F89988D978392
:101570008683F9011082C7010E949B04833069F4BD
:10158000F701148615861686178680E006C086E069
:1015900004C081E09ECF83E09CCFAC960FB6F89458
:1015A000DEBF0FBECDBFDF91CF911F910F91FF9096
:1015B000EF90DF90CF90089514BE80E68AB91BB8F3
:1015C0008EE284B98CE185B993E097B918B8409A56
:1015D00087B18C6387B91092C50086E28093C400FE
:1015E00086E08093C20088E18093C10082E080930E
:1015F000C0005098589A1092B0001092B20087E044
:101600008093B10080E18EBB1ABC1BBC9093690033
:1016100081E08DBB789466246394CAE0D0E090E6C4
:10162000892E93EE992E96E1A92EB12C85E392E0B6
:101630000E944E068111D9C1409880E18EBB1ABC30
:101640001BBC12E080E8782E1092200167BA0E943D
:1016500098008823E1F320915F02309160022F3FD0
:101660003F4F09F4BEC1409A80915F0290916002A1
:1016700020912101223010F01092330223E0E22F5A
:10168000F0E0EE5DFE4FBE010E940D0D805D808397
:10169000CB012150A0F768E670E086E291E00E945D
:1016A0004F0D82E291E00E946407833009F489C102
:1016B000811189C14EE151E06CE070E082E291E07D
:1016C0000E94C707811194C180911E0190911F0152
:1016D0000C9709F0FBC080912A0190912B01A091F9
:1016E0002C01B0912D0187359144A645B54409F0F0
:1016F000EDC010E04EE151E068E070E082E291E080
:101700000E94C707811174C180911E0190911F0131
:10171000089709F0DBC0C0902601D0902701E09027
:101720002801F09029018091220190912301A0913C
:101730002401B09125018C3469E4960763E5A6077E
:1017400064E5B60709F4A9C078F486366DE6960715
:1017500064E7A60760E2B607B9F084349944A3456C
:10176000B04509F0B3C099C0843661E6960764E7D6
:10177000A60761E6B60709F465C086369146A3461A
:10178000B44709F0A3C089C0C0FE05C06FEFC61AF8
:10179000D60AE60AF60AD701C6014097A109B1099F
:1017A00081379105A105B10508F090C04EE151E0E7
:1017B000B60182E291E00E94C707811119C18091B0
:1017C0001E0190911F01A0E0B0E08C159D05AE05B3
:1017D000BF0509F07BC080912201813009F076C0FD
:1017E00010912401123011F4F69A01C0F6988091FC
:1017F0003001883029F0803109F068C0F79A01C0C3
:10180000F79884FD110F2091260130912701409116
:10181000280150912901DA01C90180549F41A10991
:10182000B10981349C49A105B10508F04FC0C5013B
:10183000B4010E94210D2150310930938900209379
:10184000880058CF112309F441C0C11484E0D806A0
:10185000E104F104D8F1812F90E00197AA2797FDC8
:10186000A095BA2FAC01BD014C215D216E217F21D5
:10187000452B462B472B51F520904B0230904C02C4
:1018800040904D0250904E0282219321A421B52117
:10189000892B8A2B8B2BD1F4B0C0C0FE05C02FEF53
:1018A000C21AD20AE20AF20A60914B0270914C020B
:1018B00080914D0290914E026C0D7D1D8E1D9F1DDD
:1018C0000E949F08882309F415CF92C084E090E01D
:1018D000A0E0B0E0182F78C080918100882379F0D3
:1018E0001CC063EA64BD65BC10E01F5F17BD18BD76
:1018F00084E690E00E9412011038B9F7EDCF109203
:1019000034021092060110920501109280008AE0C4
:101910008093810082E080936F00D201C1019170B9
:10192000AA27BB2760E072E0681B790B4EE151E00B
:1019300080E090E00E94C707882311F012E039C0D0
:1019400080911E0190911F01C81AD90AE108F1087F
:1019500021E0C21624E0D206E104F10410F486016D
:1019600002C000E014E04EE151E0B80180E090E0F8
:101970000E94C70780911E0190911F010817190747
:10198000E9F6C01AD10AE108F1080E9498008823FC
:1019900031F080915F0290916002019649F0809150
:1019A0001E0190911F018115944091F210E001C039
:1019B00011E0809134028111FCCF77BC78BC409853
:1019C00003C013E001C012E0409877BC78BC80915E
:1019D0008100811110928100113009F435CE1092EE
:1019E0003302123009F030CE409A0E9479001ECEA8
:1019F00082E090E0A0E0B0E06DCF409A84B5811124
:101A00006BCF6FCF0E94430DA59F900DB49F900D9B
:101A1000A49F800D911D11240895AA1BBB1B51E1A9
:101A200007C0AA1FBB1FA617B70710F0A61BB70B4E
:101A3000881F991F5A95A9F780959095BC01CD01F3
:101A40000895A1E21A2EAA1BBB1BFD010DC0AA1FFF
:101A5000BB1FEE1FFF1FA217B307E407F50720F017
:101A6000A21BB30BE40BF50B661F771F881F991F92
:101A70001A9469F760957095809590959B01AC01DB
:101A8000BD01CF010895A29FB001B39FC001A39FE4
:101A900001D0B29F700D811D1124911D0895FB018D
:101AA000DC0105900D920020E1F70895F894FFCF36
:00000001FF
